S0230000576972656C657320746865726D6F6D657465725F52585F756E69742E7372656332
S11300000C9488050C94A5050C94A5050C94A505E1
S11300100C94A5050C94A5050C94A5050C94A505B4
S11300200C94A5050C94A5050C94A5050C94A505A4
S11300300C94A5050C94A5050C94A5050C94A50594
S11300400C94A5050C94A5050C94CA0C0C94A50558
S11300500C94010D0C94EC0B0C94A5050C94A505C3
S11300600C94A5050C94A5050C94A5050C94A50564
S11300700C94A5050C94A5050C94A5050C94A50554
S11300800C94A5050C94A5050C94A5050C94A50544
S11300900C94A5050C94A5050C94A5050C94A50534
S11300A00C94B90C0C94A5050C94A5050C94A50509
S11300B00C94A5056E616E00696E660000407A10AE
S11300C0F35A00A0724E18090010A5D4E80000E805
S11300D07648170000E40B54020000CA9A3B000063
S11300E000E1F505000080969800000040420F00F2
S11300F00000A08601000000102700000000E803B3
S1130100000000006400000000000A00000000007D
S11301100100000000002C76D888DC674F0823DF3C
S1130120C1DFAE59E1B1B796E5E3E453C63AE6510F
S1130130997696E8E6C28426EB898C9B62ED407C36
S11301406FFCEFBC9C9F40F2BAA56FA5F490055AD2
S11301502AF75C936B6CF9676DC11BFCE0E40D47F7
S1130160FEF520E6B500D0ED902E0300943577051A
S11301700080841E080000204E0A000000C80C33D2
S11301803333330F986E12831141EF8D2114893B61
S1130190E65516CFFEE6DB18D1844B381BF77C1DE1
S11301A0901DA4BBE424203284725E228100C9F134
S11301B024ECA1E53D27BF02030203040102040667
S11301C00A00FE07FE0700017602F9093C2007D663
S11301D0F8F92300210AD6F891B43B985300220B76
S11301E0D6F8932CC9929C37002310D6F8932C8907
S11301F00629890629C9929C00240DD6F891704AD3
S1130200C23189C69C02250DD6F8A3A429092B5115
S1130210D29413260ED6F8C3244BC24A53A6E43014
S1130220002709D6F891B4CE23002809D6F8A1B046
S11302305AAE132909D6F8E36AB14E022A0ED6F84B
S1130240D12C4AA2414AA22CA7022B0AD6F8F13497
S11302501BB434672C09D6F87913EB18002D09D692
S1130260F8D9069D1B002E09D6F8790BC71C022F5E
S11302700AD6F8B134EC9AD3003010D6F89130890C
S1130280B2244BB22809730A00310CD6F891504BB2
S1130290D2B6418701320CD6F8A72CCDB4301D74E8
S11302A018330CD6B807350CE5248B7602340DD6FA
S11302B0F8A1504BA2D220A63901350DD6B8072596
S11302C04D24294DB26827360DD6F8112D4C13490B
S11302D04AB26827370BD6B807354CC36A4E023882
S11302E00DD6F8A72CC9A2294BB26827390DD6F828
S11302F0A72C892C6998E914003A0CD6F8F170CC33
S1130300C170CC21003B0BD6F8F170CC41B18E0109
S11303103C09D6F8B1B0B91D063D0AD6F889833E2A
S1130320E88C003E09D6F8E3C67612003F0BD6F8F7
S1130330A72CACE6604E01400CD6F8A72C89942E6D
S113034052BC134110D6F8913089B2244B06254B88
S1130350B21C06420CD6B8872C6ADAA2962127432F
S11303600BD6F8A72C49DBA29D00440BD6B8872CEA
S1130370EA5F869C00450DD6B807254D87284D07B2
S11303801D06460CD6B807254D8728ADD300470C6B
S1130390D6F8A72C494B4A16ED044810D6B8B32416
S11303A04BB26450B2244BB21C064908D6F8C7B409
S11303B0E34E4A0BD6F891316DAAE914004B0ED6E0
S11303C0B8B324AA64629245B51C064C09D6B8D3C6
S11303D05E071D064D0ED6B8B3244B2CDD922CC9F6
S11303E072184E0FD6B8B3244BA4A4939225590E79
S11303F0034F0ED6F8A72CC9922CC9922CDA0950B7
S11304000DD6B887284BB26488D23A0D510ED6F86F
S1130410A72CC9922CC992A639075210D6B887289E
S11304204BB26488922CAAE53000530CD6F8A72C62
S113043089E7248B76025409D6B8072DED9D025521
S11304400FD6B8B3244BB2244BB2248B7602561089
S1130450D6B8B3244BB228C9922C09730A00570E9C
S1130460D6B8B3244BB2A42F962C8701580FD6B814
S1130470B3248B92B012654996C300590CD6B8B315
S1130480248B92306DA7005A0BD6B80735EC3AE8A6
S113049030005B08D6F8B7B4EB4E5C09D6B8D3B8D5
S11304A06B0E035D08D6F8D7DE76025E0BD6F891A4
S11304B03089B29C27005F08D6F8F93CE800600850
S11304C0D6B8E29C5F00610DD6F8A9733424593480
S11304D0E43000620DD6B8D38A2425592225894EEA
S11304E0630BD6F8A95396A459B413640ED6F8B185
S11304F034524A4A9644961C06650BD6F8A953967C
S11305000C4ABC13660CD6F8112D2A0E595A270131
S1130510670FD6F8A94392255934A449164D0068AB
S11305200ED6B8D38A2425599225590E03690AD6C2
S1130530F8911C531B77026A0BD6F8B11C539BBA73
S113054049006B0DD6B8D35A12455B54CB61006C8D
S113055008D6F8D51E77026D0BD6F8894A94F46F45
S1130560390C6E0ED6F889892425599225590E0323
S11305706F0CD6F8A95396644916ED04700FD6F89B
S1130580898924255922258994A600710DD6F8A9B4
S11305904A49C992C8925600720BD6F88989242513
S11305A0699D06730AD6F8A9533C27434E740BD6AB
S11305B0F8D370C8D252A613750DD6F8895992256E
S11305C05912597218760DD6F8895992454996846C
S11305D03905770CD6F8895992257D4A7202780D2F
S11305E0D6F8895994849528CB6100790ED6F88978
S11305F059922591254DB268027A0BD6F88983D891
S113060038E830007B0CD6F8212DCEE430D66100DA
S11306107C09D6F891B4EF14007D0BD6F8E530D6FA
S1130620E24CA7007E0AD6F8A3A453CE1B00A00771
S1130630D6F8F92300A10AD6F8911C4CBB5300A2AA
S11306400FD6F8F170486A49968443964300A30D87
S1130650D6F8112D2A8E6994243A01A40DD6F8896E
S113066059B425D994E53000A50ED6B8B3248B929D
S1130670301BB4B40E01A60BD6F891B40EA6750ABD
S113068000A70DD6F8A7748BB2285BA31D01A80799
S1130690D678EAFC01A90CD6F8A72C6991926ED100
S11306A04EAA0DD6F891A9454B7264C8A900AB0EA9
S11306B0D6F8C9511225511665518E02AC09D6F8E7
S11306C01987346704AD09D6F819879C1B00AE0E50
S11306D0D6F8A72C59122991922CDA09AF08D638EA
S11306E0069D9F01B00AD6F8913009731E01B10C22
S11306F0D6F8F1341BB4341B7418B20BD6B8B42832
S11307002C0E393700B30AD678E64C8E768E00B4B8
S113071008D6F8C29C9F00B50FD6F889599225597E
S1130720222589948300B610D6F88764499648C96F
S1130730922CC9921C06B708D6F85973AE00B808B3
S1130740D6F8F929CC00B909D6B842B5B87304BAB9
S11307500CD6F8112D6AD3A121A702BB0DD6F889B6
S1130760511665511225514EBC0DD67842B53885C7
S11307705A120D690CBD0DD67842B5B884491A8653
S11307803300BE0ED638E430CEA4504BA221CD01A6
S1130790BF0BD6F8911C4CC35AB413C00FD678E2E1
S11307A070CA922C19942CC97218C10FD6F8C27051
S11307B0CA922C19942CC97218C210D6B8C2249BA0
S11307C0B2244B06254BB21C06C311D678A224D101
S11307D0A62CC99241C9922C8701C410D678EAD0BC
S11307E094255932285992E53000C510D6B8C22450
S11307F09BB2244B06254BB21C06C60ED6F891219B
S113080029350D43D4B4A300C70BD6F8A72C49DB74
S1130810A2B108C80ED678C24149D3214AD3418730
S113082001C90ED6F8A24149D3214AD3418701CA4E
S11308300ED6B8B24149D3214AD3418701CB0ED653
S1130840784A8392A64394A6830E03CC0AD678E210
S1130850704C1B7702CD0AD6F8C2704C1B7702CEBF
S11308600BD6B8C2241BD3C69D00CF0AD678EAD0D3
S11308709836EE04D00CD6B8872C6A59A22E434E73
S1130880D111D6B8922889B2444A3A295992E5300E
S113089000D20ED678E270CA922CC9922CDA09D30F
S11308A00ED6F8C270CA922CC9922CDA09D40FD68B
S11308B0B8C2249BB2244BB2248B7602D510D6B88E
S11308C09228C9A62CC9922CC9A29D00D60ED6780E
S11308D0EAD0942559922559B413D70DD6F88959DD
S11308E094849528CB6100D80ED6F8A7488994162D
S11308F02991A29D00D90ED678E2AC922559922571
S113090059B413DA0ED6F8C2AC922559922559B4CB
S113091013DB0FD6B8C22447B2244BB2248B760221
S1130920DC0FD678EA4896644996644916ED04DDEE
S11309300DD6F8C2AC92454998D62900DE0DD6B83A
S1130940D321CA92214AEB3400DF0ED6F8A72C89B2
S11309502A59544B129D00E00ED678E21C9BA32129
S1130960C9A2218701E10ED6F8C21C9BA321C9A20A
S1130970218701E20FD6B8C22487E66848B268C866
S11309806100E30FD6B89228C9A1391A922C1A72C1
S113099018E40ED6F8931C9AA321C9A2218701E575
S11309A00FD6B8C2240CE76848B268C86100E60DE7
S11309B0D6F8A9439824C3940D3A0AE70CD6F8A9AB
S11309C05396A459341601E80DD678E21C9BB26400
S11309D050E29D00E90DD6F8C21C9BB26450E29D22
S11309E000EA0DD6B8C22487A62C19947827EB0DFB
S11309F0D6F8931C9AB26450E29D00EC0AD678E2D1
S1130A001C531B7702ED0AD6B8C21C541B7702EEA6
S1130A100BD6B8C22487D4C69D00EF0AD6F8931C1F
S1130A20521B7702F00CD6B86D5396644916ED0448
S1130A30F111D6B89228C9914492922CC9922C876C
S1130A4001F20DD678E21C9BB2244BB26827F30D59
S1130A50D6F8C21C9BB2244BB26827F40ED6B8C297
S1130A602487A62CC9922CDA09F50FD6B89228C986
S1130A70A1294BB2248B7602F60DD6F8931C9AB2B8
S1130A80244BB26827F70AD6F8F11C1A742867F8C1
S1130A900DD6F8A94312292D5232E404F90FD67861
S1130AA0E21CCA922CC992C892C300FA0FD6F8C2AB
S1130AB01CCA922CC992C892C300FB10D6B8C22497
S1130AC047B2244BB224B2E43000FC0FD6F8931C96
S1130AD0C9922CC992C892C300FD0FD6F8A130ABBD
S1130AE064496449932C9A00FE0FD6F8D17488B2F5
S1130AF0244BB26488D214FF10D6F8931CC9922CEC
S1130B00892C699245130000000004FFFF000000D7
S1130B1011241FBECFEFD8E0DEBFCDBF11E0A0E0AF
S1130B20B1E0E8E3F6E202C005900D92A437B10704
S1130B30D9F726E0A4E7B1E001C01D92A23FB207B5
S1130B40E1F70E944D0D0C941A130C9400000F93BE
S1130B501F93DC01ED91FC911197208992960D91E0
S1130B601C919397629FB0011124660F771F660F43
S1130B70771F660F771F060F171F60E00E94860A13
S1130B801F910F910895EF92FF920F931F93CF93AC
S1130B90DF938C01DC019496FC9094979596DC91FC
S1130BA09597ED91FC91E188C0E04D2F6C2FC80121
S1130BB00E94A705CF5FDF5FCF1510F4DE15A8F301
S1130BC0DF91CF911F910F91FF90EF900895FC0159
S1130BD0A081B18150969C9144A1949FA0011124BD
S1130BE0440F551F440F551F440F551F60E070E01C
S1130BF082A193A10E946E120895CF93DF93EC011A
S1130C000E94C305CE010E94E00ADF91CF910895AE
S1130C1028E0FC01208384E791E00895CF92DF92DD
S1130C20EF92FF920F931F93CF93DF931F92CDB751
S1130C30DEB77C016B0189019A0146E05AE06EE55A
S1130C407BE00E94C60BCE0101960E940806860135
S1130C5021E737E04981BC01C7010E94B4080F9025
S1130C60DF91CF911F910F91FF90EF90DF90CF9084
S1130C700895860F911DFC0184910895FC01E60FEF
S1130C80F11D849190E03196982F8827E4918E0F7E
S1130C90911D089580E090E008950F931F93CF93E2
S1130CA0DF93EC018B0160E0C8010E943906888360
S1130CB061E0C8010E943906898362E0C8010E948C
S1130CC039068A8363E0C8010E9439068B8364E095
S1130CD0C8010E9439068C8365E0C8010E94390668
S1130CE08D8366E0C8010E9439068E8367E0C801DF
S1130CF00E9439068F8368E0C8010E9439068887FC
S1130D0069E0C8010E94390689876AE0C8010E9427
S1130D1039068A876BE0C8010E9439068B876CE02C
S1130D20C8010E9439068C876DE0C8010E9439060B
S1130D308D876EE0C8010E9439068E876FE0C80176
S1130D400E9439068F8760E1C8010E943906888BAA
S1130D5061E1C8010E943E069A8B898B63E1C80158
S1130D600E943E069C8B8B8B65E1C8010E943E0667
S1130D709E8B8D8BDF91CF911F910F910895FC0174
S1130D80EC5BFF4F20813181232BE1F1B096208170
S1130D903C9620833B9740813C9640833297308138
S1130DA0332381F1313079F439973081231714F4E6
S1130DB03A963083FC01E959FF4F2081241714F53A
S1130DC03A9620830895022E000C330BFC01EF5950
S1130DD0FF4FE081DC01AD59BF4F5C91652F052EBB
S1130DE0000C770B6E0F711DE7FD7A9526173707F8
S1130DF01CF41D96E50FEC93541724F4FC01EF58F2
S1130E00FF4F508308958A5B9F4F2AE436E0FC012C
S1130E10318320830895CF93DF93FC01EC5BFF4F74
S1130E20208131812617370751F0EC0171836083EB
S1130E30895A9F4F0E944D06CE010E94BF06DF9142
S1130E40CF9108950F93DC019A96ED91FC919B97B5
S1130E504E1B5F0B5E96ED91FC915F9709950F9188
S1130E6008954617570740F48217930768F024172C
S1130E70350760F481E008958217930748F4241736
S1130E80350740F481E0089581E0089580E00895F5
S1130E9080E0089580E00895CF92DF92EF92FF9270
S1130EA00F931F93CF93DF93EC017B0169019801AA
S1130EB06AAD7BAD88AD99AD0E943107882341F0BE
S1130EC06EA97FA99601A7018CA99DA90E9431074B
S1130ED0DF91CF911F910F91FF90EF90DF90CF9012
S1130EE008950F931F93CF93DF93DC01CA01542F0E
S1130EF05770C1E0D0E0052E02C0CC0FDD1F0A946C
S1130F00E2F71C2FFD01EC58FF4FE081E23010F0B6
S1130F1040E001C04C2FE13009F410E0887FED91EE
S1130F20FC911197C089C89FF001C99FF00D11244D
S1130F3092968D919C9193976E0F7F1FFC01E60F03
S1130F40F71F011108C08081842B812781932150D0
S1130F503109C9F721C09081942B912790835F5F59
S1130F60577021503109511110C096968D919C9162
S1130F709797E80FF91FED01CC58DF4F8881823035
S1130F8008F441E0813021F404C0440F110F01C082
S1130F9011E021153105F9F6DF91CF911F910F91E1
S1130FA00895CF93DF93FC01A081B18184A190E0E7
S1130FB09C01220F331F220F331F220F331F31A72F
S1130FC020A750962C91509730E0220F331F220F08
S1130FD0331F220F331F37A326A375A1272F30E019
S1130FE0A901440F551F440F551F440F551F53A704
S1130FF042A7280F391F51966C915197C62FD0E004
S1131000C217D30718F4CE01871B9109880F991FC3
S1131010880F991F880F991F55A744A7840F951F00
S113102097A786A754968D919C91559791AB80ABC9
S113103056968D919C91579793AB82ABDF91CF914C
S113104008950E94D10708950F931F93CF93DF93C0
S1131050EC01FC01EE5BFF4F008111812EAD3FAD31
S11310603297408151816CAD7DAD0E944C07811156
S113107004C0C259DF4F18822FC081E0FE01E2593B
S1131080FF4F80832CA93DA98CAD9DAD281739074E
S113109010F49DAB8CAB2EA93FA98EAD9FAD8217EA
S11310A0930710F49FAB8EAB28AD39ADFE01E05C25
S11310B0FF4F808191812817390710F499AF88AFC9
S11310C02AAD3BADFE01EE5BFF4F8081918182171B
S11310D0930710F49BAF8AAFDF91CF911F910F91CB
S11310E00895FC0115AA14AA80A991A997AB86AB0F
S11310F084A595A591AF80AF86A597A593AF82AF40
S1131100CF010E94240808950F93FA01DC01D296BE
S11311104D915C91D3974E1B5F0B00FF03C0421BA4
S1131120530B02C0415051090E9422070F910895A8
S1131130DC01DD961C921E92DC97FC01E05CFF4F03
S1131140118210822FEF3FEFFC0137AF26AFEE5B29
S1131150FF4F318320839096ED91FC91919702800B
S1131160F381E02D099508950F931F93CF93DF9397
S1131170EC01FC01EC5BFF4F118210823F8F2E8F3C
S11311807BA36AA34CA31DA23F961082B096108243
S113119034971082359681E080833196808319A339
S11311A008A3D801ED91FC91CE010995CE010E94CE
S11311B09808CE010E940307CA5ADF4F1882DF91B4
S11311C0CF911F910F910895462FDC011896ED9150
S11311D0FC91199720E030E060E2099508959A01A6
S11311E0DC011896ED91FC911997462F67E109955A
S11311F00895CF93DF931F92CDB7DEB76983AE0115
S11312004F5F5F4F61E00E94EF080F90DF91CF9135
S11312100895BF92CF92DF92EF92FF920F931F93A4
S1131220CF93DF938C01B42E6901DC01ED91FC9125
S113123084858170F82E81E0E82EEF18683109F476
S113124047C028F4643171F1673141F14FC069310D
S113125009F445C06032B1F149C0F601D1916F0182
S1131260BA94C0E019C0DD2334F441E061E4C8015C
S11312700E94A40B05C040E061E4C8010E94A40BD5
S1131280DD0F4E2D60E4C8010E94A40B4F2D60E4D5
S1131290C8010E94A40BCF5FC83028F3B110DDCF82
S11312A081E025C0418169E4C8010E94A40BD801F2
S11312B0ED91FC914485417060E4C8010E94A40B47
S11312C081E015C06AE4C8010E94A40B81E00FC04C
S11312D0408169E4C8010E94A40B81E008C04181F7
S11312E069E4C8010E94A40B81E001C080E0DF91A1
S11312F0CF911F910F91FF90EF90DF90CF90BF900F
S11313000895462FDC011696ED91FC91179720E085
S113131030E065E109950895462FDC011696ED91BC
S1131320FC91179720E030E066E1099508959A0151
S1131330DC011696ED91FC911797462F67E109950C
S11313400895DC011696ED91FC91179720E030E0AA
S113135040E068E109950895DC011696ED91FC9151
S1131360179720E030E040E069E109950895EF9295
S1131370FF920F931F93CF93DF931F92CDB7DEB7E6
S11313807C018B01D8016D918D016731B9F018F49E
S1131390653130F433C06A31E8F06E3F31F12EC06C
S11313A0FD0141918F014983D7011696ED91FC917E
S11313B0179720E030E0C7010995E4CFFD01819142
S11313C08F018983AE014F5F5F4F61E0C7010E94C7
S11313D09709D8CFD7011696ED91FC91179720E085
S11313E030E040E0C7010995CDCFFD0141918F0167
S11313F0498369E2C7010E94A40BC4CF0F90DF9117
S1131400CF911F910F91FF90EF900895EF92FF926B
S11314100F931F93CF93DF938C01C62FD42F7901A1
S11314206631A1F028F46431E9F0653131F025C06A
S11314306731A9F06A3108F515C060E00E94E4083C
S11314406D2FC8010E94F90881E018C060E00E9475
S1131450E4086D2FC8010E94F90881E00FC061E023
S11314600E94E408D8011896ED91FC911997970110
S11314704D2F6C2FC801099501C080E0DF91CF91F9
S11314801F910F91FF90EF900895FC017183608389
S1131490FB012289FC01248B0895CF93DF93EC0197
S11314A0EA85FB8520E030E040E068E20995EE81C2
S11314B0FF8120E030E040E064E1CE01099541E0A5
S11314C06BE4CE010E94A40BE881F981448169E2B6
S11314D0CE010E94A40B40E06BE4CE010E94A40B59
S11314E0E881F981448169E2CE010E94A40B41E0C4
S11314F06BE4CE010E94A40BE881F981458169E285
S1131500CE010E94A40BDF91CF9108950F931F93F6
S1131510CF93DF9300D000D01F92CDB7DEB76C839A
S11315204D832B831A830983DC011496ED91FC917E
S113153015979E012F5F3F4F41E06FE009950F9093
S11315400F900F900F900F90DF91CF911F910F91FB
S11315500895DC011496ED91FC91159720E030E09C
S113156040E069E009950895DC011496ED91FC9141
S1131570159720E030E040E06AE009950895462F91
S1131580DC011496ED91FC91159720E030E06BE0BE
S113159009950895462FDC011496ED91FC91159759
S11315A020E030E06DE009950895462FDC011496A3
S11315B0ED91FC91159720E030E06EE009950895D7
S11315C0DC011496ED91FC91159720E030E040E0A9
S11315D060E109950895DF92EF92FF920F931F93B4
S11315E0CF93DF938C01C42F79016E3009F44CC082
S11315F06F3021F06B3009F058C038C00E94A10947
S1131600F701D380DD0CDD0CDD0CF8018489D80EE4
S11316106D2D62956F706061C8010E9481096D2D06
S11316206F70C8010E948109F7016481606BC80171
S11316300E948109F701D281DD0FDD0FDD0FE0800B
S1131640F1808D2D90E08D0F911D8538910510F05E
S1131650D4E8DD19A7016D2FC8010E949709C15074
S1131660C9F7C8010E94AC0981E020C0411106C03D
S11316706CE671E00E94B70981E018C065E671E08C
S11316800E94B70981E012C00E94A10961E8C80163
S11316900E9481096C2F66956695C8010E948C0989
S11316A0C8010E94AC0981E001C080E0DF91CF91C4
S11316B01F910F91FF90EF90DF9008950F931F9368
S11316C0CF93DF938C01C62FD42F0E94EB0A811194
S11316D035C0CA3059F0CD3099F0C93081F56FE387
S11316E071E0C8010E94450A81E029C0C8010E9436
S11316F04D0A6EE171E0C8010E94B70981E01FC084
S1131700D1110EC06EE571E0C8010E94B709D8017D
S1131710ED91FC911197828954968C9381E00FC0CE
S113172067E571E0C8010E94B709D801ED91FC9109
S11317301197838954968C9381E001C081E0DF91F5
S1131740CF911F910F910895DC011A96ED91FC91B0
S11317501B9720E030E00995089580E00895FC018E
S1131760118210828DEA9BE095838483978386831C
S11317709187808793878287158A108E14861586B1
S1131780168617868FEF868B828F0895AF92BF924D
S1131790CF92DF92EF92FF920F931F93CF93DF9339
S11317A0EC015B016A0179010E94AF0BBD82AC823E
S11317B0DF82CE82F986E8861B870A87CE010E94E3
S11317C0A90ADF91CF911F910F91FF90EF90DF90C5
S11317D0CF90BF90AF9008951F920F920FB60F92C3
S11317E011248F9381E0809300018F910F900FBE9D
S11317F00F901F901895613441F128F4683259F024
S11318006034C9F049C06A34A1F16B34E1F1693440
S113181009F042C024C087B1846087B987B1886069
S113182087B98DB188608DB987B1826087B987B176
S1131830816087B931C0442321F088B1846088B9BC
S11318402BC088B18B7F88B927C0442321F088B18D
S1131850886088B921C088B1877F88B91DC04423B6
S113186021F08EB188608EB917C08EB1877F8EB992
S113187013C0442321F088B1826088B90DC088B1B7
S11318808D7F88B909C0442321F088B1816088B96B
S113189003C088B18E7F88B981E00895662399F0EA
S11318A0DC01ED91FC91119721E030E0A901129641
S11318B00C9002C0440F551F0A94E2F7CA019081AC
S11318C0892B80830895DC01ED91FC91119721E02F
S11318D030E0A90112960C9002C0440F551F0A94DF
S11318E0E2F7CA0180959081892380830895FC01E1
S11318F030812181613099F018F06230F1F008955F
S113190081E090E0028002C0880F991F0A94E2F7F8
S1131910E32FF22F8095929189238083089581E0AB
S113192090E0028002C0880F991F0A94E2F7E32F27
S1131930F22F9291892B8083089581E090E0AC018D
S1131940028002C0440F551F0A94E2F7A32FB22F5E
S113195040952E9142234C93A081B181028002C014
S1131960880F991F0A94E2F780959C9189238C93A0
S113197008951F920F920FB60F9211248F938091A6
S1131980D900887F809301018F910F900FBE0F9033
S11319901F9018951F920F920FB60F9211248F93D8
S11319A09F93EF93FF93E091F405F091F5058091F7
S11319B0C600EC58FA4F8083E091F405F091F505E8
S11319C0EC58FA4F80818A3051F481E0809302010F
S11319D0E091F405F091F505EB58FA4F10828091EF
S11319E0F4059091F50501969093F5058093F4051F
S11319F0FF91EF919F918F910F900FBE0F901F90C9
S1131A0018951F920F920FB60F9211248F9381E0B5
S1131A10809303018F910F900FBE0F901F90189524
S1131A20442339F0E0ECF0E0208122602083A8E038
S1131A3001C0A0E1B0E09B01AC010E9449119B01EF
S1131A40AC0160E074E284EF90E00E941811BA01E6
S1131A50A9014150510961097109DB01CA018827B3
S1131A609F70AA27BB27892F9A2FAB2FBB27809360
S1131A70C5004093C400E1ECF0E08081886D808370
S1131A8086E88093C2000895909103019923E1F3BD
S1131A90109203018093C6000895789484E091E045
S1131AA09093EF068093EE062BEF3BE049E059E07C
S1131AB068E171E086E796E00E940E0640E060E887
S1131AC075E280E090E00E94100D86E796E00E94A7
S1131AD0B40A60E086E796E00E94BF0A61E086E708
S1131AE096E00E94CA0A68E786E796E00E94D50A53
S1131AF061E085E191E00E94770C61E085E191E08D
S1131B000E944E0C61E082E191E00E94770C61E05A
S1131B1082E191E00E944E0C86E796E00E94E70580
S1131B2066EB71E086E796E00E940B0786E796E095
S1131B300E94FD05FFCFA0E1B0E0E1EAFDE00C94D6
S1131B4054117C011B016A01FC01178216828381F6
S1131B5081FF44C39E012F5F3F4F3901F7019381F9
S1131B60F10193FD859193FF81911F01882309F46D
S1131B7031C3853239F493FD859193FF81911F011F
S1131B80853239F4B70190E00E9480125601650154
S1131B90E5CF10E0512C912CFFE1F915D8F08B32F0
S1131BA079F038F4803279F08332A1F4F92DF061C0
S1131BB02EC08D3261F0803369F4292D21602DC04F
S1131BC0392D3260932E892D8460982E2AC0E92DF8
S1131BD0E86015C097FC2DC020ED280F2A3088F44A
S1131BE096FE06C03AE0139F200D1124122F19C04F
S1131BF08AE0589E200D1124522EE92DE0629E2E7B
S1131C0010C08E3231F496FCE5C2F92DF0649F2E9B
S1131C1008C08C3621F4292D2068922E02C0883603
S1131C2041F4F10193FD859193FF81911F0181118D
S1131C30B3CF9BEB980F933020F4992D9061805E85
S1131C4007C09BE9980F933008F066C1992D9F7ED9
S1131C5096FF16E09F73992E853619F49064992E99
S1131C6008C0863621F4392F3068932E02C0111132
S1131C70115097FE07C01C3350F444244394410E82
S1131C8027E00BC0183038F027E017E005C027E044
S1131C909CE3492E02C0212F412C560184E0A80E5A
S1131CA0B11CF6016081718182819381042DA301AD
S1131CB00E948B116C01F981FC87F0FF02C0F3FFD5
S1131CC006C091FC06C092FE06C000E205C00DE20B
S1131CD003C00BE201C000E08C858C7019F0011187
S1131CE05AC29BC297FE10C04C0CFC85F4FF04C082
S1131CF08A81813309F44A94141474F528E0241574
S1131D0078F588E0482E2CC096FC2AC0812F90E0FC
S1131D108C159D059CF03CEFC3163FEFD30674F081
S1131D20892D8068982E0AC0E2E0F0E0EC0FFD1FD8
S1131D30E10FF11D8081803319F411501111F4CF9A
S1131D4097FE0EC044244394410E812F90E0C816A0
S1131D50D9062CF41C1904C04424439401C010E097
S1131D6097FE06C01C141D0434F4C601019605C078
S1131D7085E090E002C081E090E00111019611231A
S1131D8031F0212F30E02F5F3F4F820F931F252D1D
S1131D9030E08217930714F4581A01C0512C892D8E
S1131DA0897049F4552039F0B70180E290E00E942F
S1131DB080125A94F7CF002329F0B701802F90E0C6
S1131DC00E94801293FC09C0552039F0B70180E3CA
S1131DD090E00E9480125A94F7CF97FE4CC04601BF
S1131DE0D7FE02C0812C912CC60188199909F301F0
S1131DF0E80FF91FFE87ED87960124193109388B06
S1131E002F87012F10E01195019511093FEF8316DB
S1131E10930629F4B7018EE290E00E948012C81460
S1131E20D9044CF08F8598898815990524F4ED859B
S1131E30FE85818101C080E3F1E08F1A91082D8530
S1131E403E852F5F3F4F3E872D87801691062CF0ED
S1131E50B70190E00E948012D9CFC814D90441F48C
S1131E609A81963320F4953319F43C8534FF81E349
S1131E70B70190E04EC08A81813319F09C859F7E22
S1131E809C87B70190E00E948012111105C094FC58
S1131E9018C085E690E017C0B7018EE290E00E947A
S1131EA080121E5F82E001E0080FF301E80FF11DCC
S1131EB08081B70190E00E948012802F0113F3CF3C
S1131EC0E6CF85E490E0B7010E948012D7FC06C0FB
S1131ED0C114D10441F4EC85E4FF05C0D194C1944C
S1131EE0D1088DE201C08BE2B70190E00E9480121C
S1131EF080E32AE0C216D1042CF08F5FFAE0CF1AF7
S1131F00D108F7CFB70190E00E948012B701C60153
S1131F10C0960E94801254C1833631F0833779F021
S1131F20833509F056C020C0560132E0A30EB11C1F
S1131F30F6018081898301E010E0630112C056013B
S1131F40F2E0AF0EB11CF601C080D18096FE03C052
S1131F50612F70E002C06FEF7FEFC6010E9475121F
S1131F608C01F92DFF7714C0560122E0A20EB11C9A
S1131F70F601C080D18096FE03C0612F70E002C0DC
S1131F806FEF7FEFC6010E9463128C01F92DF06898
S1131F909F2EF3FD1AC0852D90E008171907A8F4A9
S1131FA0B70180E290E00E9480125A94F4CFF601C7
S1131FB097FC859197FE81916F01B70190E00E9493
S1131FC0801251105A94015011090115110579F725
S1131FD0F7C0843611F0893661F5560197FE09C0C1
S1131FE024E0A20EB11CF60160817181828193818B
S1131FF00AC0F2E0AF0EB11CF60160817181072EB8
S1132000000C880B990BF92DFF769F2E97FF09C0C2
S113201090958095709561957F4F8F4F9F4FF06895
S11320209F2E2AE030E0A3010E94BC12C82EC618DD
S11320303FC0092D853721F40F7E2AE030E01DC012
S1132040097F8F3691F018F4883559F0C3C0803772
S113205019F0883711F0BEC0006104FF09C00460A4
S113206007C094FE08C0066006C028E030E005C042
S113207020E130E002C020E132E0560107FF09C050
S113208084E0A80EB11CF601608171818281938184
S113209008C0F2E0AF0EB11CF6016081718180E0EE
S11320A090E0A3010E94BC12C82EC6180F77902E90
S11320B096FE0BC0092D0E7FC11650F494FE0AC083
S11320C092FC08C0092D0E7E05C0DC2C092D03C02E
S11320D0DC2C01C0D12E04FF0DC0FE01EC0DF11D5E
S11320E08081803311F4097E09C002FF06C0D394B5
S11320F0D39404C0802F867809F0D39403FD11C0D3
S113210000FF06C01C2DD51480F4150D1D190DC03B
S1132110D51458F4B70180E290E00E948012D39461
S1132120F7CFD51410F45D1801C0512C04FF10C072
S1132130B70180E390E00E94801202FF17C001FD06
S113214003C088E790E002C088E590E0B7010CC0C6
S1132150802F867859F001FF02C08BE201C080E233
S113216007FD8DE2B70190E00E948012C11638F499
S1132170B70180E390E00E9480121150F7CFCA9417
S1132180F301EC0DF11D8081B70190E00E948012F3
S1132190C110F5CF15C0F4E0F51560F584E0581AC8
S11321A093FE1FC0011127C02C8523FF2AC004EB16
S11321B010E0392D3071932EF8018491811124C0DF
S11321C0552009F4E4CCB70180E290E00E9480122B
S11321D05A94F6CFF7018681978126C08FEF9FEF3F
S11321E023C0B70180E290E00E9480125A945110FB
S11321F0F8CFD8CF512CB701802F90E00E948012E5
S1132200D3CF08EB10E0D5CF91108052B70190E006
S11322100E9480120F5F1F4FCFCF23E0251510F4CB
S113222083E0BDCF512CC0CF6096E2E10C947011D5
S1132230A1E21A2EAA1BBB1BFD010DC0AA1FBB1FC6
S1132240EE1FFF1FA217B307E407F50720F0A21B38
S1132250B30BE40BF50B661F771F881F991F1A94A5
S113226069F760957095809590959B01AC01BD01CF
S1132270CF010895A29FB001B39FC001A39F700D29
S1132280811D1124911DB29F700D811D1124911D7A
S113229008950E943A11A59F900DB49F900DA49F9C
S11322A0800D911D112408952F923F924F925F92B9
S11322B06F927F928F929F92AF92BF92CF92DF9252
S11322C0EF92FF920F931F93CF93DF93CDB7DEB7B7
S11322D0CA1BDB0B0FB6F894DEBF0FBECDBF09944B
S11322E02A88398848885F846E847D848C849B84A2
S11322F0AA84B984C884DF80EE80FD800C811B81B0
S1132300AA81B981CE0FD11D0FB6F894DEBF0FBEDE
S1132310CDBFED010895283008F027E03327DA0116
S1132320990F311D87FD916000966105710539F49F
S113233032602E5F3D9330E32A95E1F708959F3F85
S113234030F080387105610509F03C5F3C5F3D93D6
S1132350913008F08068911DDF93CF931F930F9302
S1132360FF92EF92192F987F9695E92F969596955F
S1132370E90FFF27EA5EFE4F99273327EE24FF2457
S1132380A701E70105900894079428F4360FE71E87
S1132390F81E491F511D660F771F881F991F069449
S11323A0A1F70590079428F4E70EF81E491F561F5D
S11323B0C11D770F881F991F661F0694A1F705900A
S11323C0079428F4F80E491F561FC71FD11D880F04
S11323D0991F661F771F0694A1F70590079420F4B0
S11323E0490F561FC71FD81F990F661F771F881FD5
S11323F00694A9F784911095177041F0D695C79566
S113240057954795F794E7941A95C1F7ECEBF0E0EC
S113241068941590159135916591959105907FE299
S11324207395E118F10A430B560BC90BD009C0F799
S1132430E10CF11E431F561FC91FD01D7EF47033DB
S113244011F48A95E6CFE894015030F0080F0AF4AD
S11324500027021708F4202F2395022F7A3328F03F
S113246079E37D932A95E9F710C07D932A9589F63F
S1132470069497956795379517951794E118F10A7F
S1132480430B560BC90BD00998F023957E91739595
S11324907A3308F070E37C932013B8F77E9170616F
S11324A07D9330F0839571E37D9370E32A95E1F792
S11324B01124EF90FF900F911F91CF91DF919927F5
S11324C087FD90950895FC010590615070400110BE
S11324D0D8F7809590958E0F9F1F0895DC0101C059
S11324E06D9341505040E0F70895FC0161507040F5
S11324F001900110D8F7809590958E0F9F1F089535
S11325000F931F93CF93DF93FB01238121FD03C01E
S11325108FEF9FEF2CC022FF16C046815781248184
S113252035814217530744F4A081B1819D012F5F87
S11325303F4F318320838C93268137812F5F3F4F18
S11325403783268314C08B01EC01FB010084F185E1
S1132550E02D0995892BE1F6D80116968D919C9171
S11325601797019617969C938E931697CE01DF9139
S1132570CF911F910F910895FA01AA27283051F1A4
S1132580203181F1E8946F936E7F6E5F7F4F8F4FA0
S11325909F4FAF4FB1E03ED0B4E03CD0670F781FFF
S11325A0891F9A1FA11D680F791F8A1F911DA11DE4
S11325B06A0F711D811D911DA11D20D009F468941D
S11325C03F912AE0269F11243019305D3193DEF6C5
S11325D0CF010895462F4770405D4193B3E00FD07B
S11325E0C9F7F6CF462F4F70405D4A3318F0495D66
S11325F031FD4052419302D0A9F7EACFB4E0A69549
S11326009795879577956795BA95C9F7009761056A
S1132610710508959B01AC010A2E069457954795C0
S113262037952795BA95C9F7620F731F841F951FB5
S10B2630A01D0895F894FFCFEA
S113263801F801010000000200000000440D000040
S113264800002B00042E00022108710884081815C4
S1132658E215AE154015A115C815A615A2152F1516
S1132668F8160015271581160715AE15A519FF00CC
S11326780196320101327800093D00000428501007
S1132688080004800040001815A015C019FF18158B
S1132698A115C819FF1815AE15A519FF1815A41505
S10726A8AF19FF0063
S9030000FC
