:100000000C94F21F0C940F200C940F200C940F20D2
:100010000C940F200C940F200C940F200C940F20A4
:100020000C940F200C940F200C940F200C940F2094
:100030000C940F200C940F200C940F200C940F2084
:100040000C940F200C940F200C946B2B0C940F200D
:100050000C94A22B0C94582A0C940F200C940F2073
:100060000C940F200C940F200C940F200C940F2054
:100070000C940F200C940F200C940F200C940F2044
:100080000C940F200C940F200C940F200C940F2034
:100090000C940F200C940F200C940F200C940F2024
:1000A0000C944E2B0C940F200C940F200C940F20CA
:1000B0000C940F206E616E00696E660000407A102D
:1000C000F35A00A0724E18090010A5D4E80000E809
:1000D0007648170000E40B54020000CA9A3B000067
:1000E00000E1F505000080969800000040420F00F6
:1000F0000000A08601000000102700000000E803B7
:10010000000000006400000000000A000000000081
:100110000100000000002C76D888DC674F0823DF40
:10012000C1DFAE59E1B1B796E5E3E453C63AE65113
:10013000997696E8E6C28426EB898C9B62ED407C3A
:100140006FFCEFBC9C9F40F2BAA56FA5F490055AD6
:100150002AF75C936B6CF9676DC11BFCE0E40D47FB
:10016000FEF520E6B500D0ED902E0300943577051E
:100170000080841E080000204E0A000000C80C33D6
:100180003333330F986E12831141EF8D2114893B65
:10019000E65516CFFEE6DB18D1844B381BF77C1DE5
:1001A000901DA4BBE424203284725E228100C9F138
:1001B00024ECA1E53D27C00205050607010507203F
:1001C0004000F428F430F806DB103034B820112059
:1001D00030017FF0FFFFFFFFFFFFFF9F00002118AE
:1001E0002030017FF07F9AE0E4FFFF7F1FFC06C113
:1001F000C9FBE0FF340022162030017FF0E70846FB
:10020000FEFFFF7F1FFCFFFFFFFF7B00232220304C
:10021000017FF07F9260E4FF8738C2870846FEFFC7
:10022000FF7F88237C8860E4FFF7C1FF4900246FCB
:100230002030017FF067094E76A755292B5DA92054
:10024000842C0A21094348C210923084240C2109CD
:100250004348C210923084240C218B42CC8210532C
:100260007A939B9E3409524CA214923084240C2120
:10027000094348C210923084240C21094348C2101B
:10028000923084240C21094348C2109228852448C6
:1002900091AE64A96A4D97E0641FFC590025702057
:1002A00030017FF0FF08C10966A46221A8508420B4
:1002B0004CB108419862118228052304510A46086E
:1002C00082148D1004291C420A68944217BBD0C5C1
:1002D0002E74B10B5DEC4217BBD0C52E74B10B5D13
:1002E000EC4217C58005415C410841B48210826030
:1002F000452104C18A420862158610C42A0C2108CF
:1003000055206415C96004273EF87F0400265A2052
:1003100030017FF07F57A14E849EE40A54B4421509
:100320008CFCFFB14215AD4085931E149DB9C86584
:1003300036F281D12B50410653A8421086608A21A3
:100340001A72086720C215897084221CA1085724DC
:10035000C219A860082A947226511C6914072A44FD
:1003600062D0F0C1FF390027142030017FF0670907
:100370004EFE7F1FFCFFFFFFFFBB00284420300123
:100380007F7018B10A656623917B60239B7469179F
:10039000BAD8852E76A18B5D6C8213BBB4094EFE54
:1003A000C78B5D70122F76C18B5DF06217BCD805CC
:1003B0002FB6D93E34921BCA5805231F1C020029B0
:1003C000422030017F7009C18A656893117D6CB34A
:1003D0005DF06217BCD8052F76C18B5D70122F7649
:1003E000C1C9FFEDD22638B14BBAD8852E76A18B84
:1003F0005DE8421BD9848F8BC8663254B1C8077739
:10040000012A3D2030017FF0FF7F9A6064AC5005E7
:100410003390D10C633C8318D110C664AA72118C3E
:10042000721CE17308465DA532D310463488F10C86
:1004300063340319AC500523F7C1FF9F05002B1946
:100440002030017FF0FFFFEF109CFC28C5E828C199
:10045000C9EF83FFFF37002C1C2030017FF0FFFF26
:10046000FFFFFF36C1C9DB852EF2910D5DECE18304
:10047000BF0D002D142030017FF0FFFFFFAF60089B
:10048000EF83FFFFFF17002E142030017FF0FFFFE6
:10049000FFFFFFEB0427EF83FFD3002F5220300133
:1004A0007FF00B0427764917BBD0C52E74B10B5DC6
:1004B000EC4217BBD0C52E74B10B5DEC4217BBD01C
:1004C000C52E74B10B5DEC4217BBD0C52E74B10BB9
:1004D0005DEC4217BBD0C52E74B10B5DEC4217BB6F
:1004E000D0C52E74B18B4D70E2835F0000307B204D
:1004F00030017FF07FD58152A396A50A56A4C2157C
:10050000888004222081084820E21588700622DABB
:1005100081088620622588500A22921108442043CF
:10052000108838C62010610C4220A2188540043182
:100530000C8188611C0211C240A4602402298A40F7
:10054000C92210C208743402198E40C52310010953
:10055000444002119040042450E18A54B042598B27
:100560006A12743EF8BF0A00312A2030017FF07F02
:10057000D8C807466E628B40D44210B418042508D0
:1005800041874250C1109CFCFFFF472946F7C1FF3D
:10059000490032312030017FF07FD58152A396A5EA
:1005A0000A56A4C2158880042220C1C9DBC42E7457
:1005B000F9FFEF118880042220810848207C1FFC6D
:1005C0001F0400333B2030017FF07FD58152A3967A
:1005D000A50A56A4C2158880042220C1C9B749F0D3
:1005E000898E74E4D3C938F9870848200212A870AC
:1005F000452A58A1AC4535093A1FFC5F0500341C5B
:100600002030017FF07F90E0E48F91FFFFFF1FC358
:10061000101E2638F9DF07FF470135392030017FEA
:10062000F07F10437888800422208108482002123D
:1006300088E0E4C7A7562D4B5DBBE00527FF2102EC
:10064000128880042A5C910A56286B514D82CE078D
:10065000FF570136582030017FF07FD58152A39695
:10066000A50A56A4C215888004222081084E7E7CEB
:100670006AD5B2D495085724E215888004222081D7
:100680000848200212888004222081084820021293
:100690008880042220810848200212A870452A5828
:1006A000A1AC4535093A1FFC5F0500372520300114
:1006B0007FF07F1043788880042220810848200240
:1006C000129CBC5DE8F2BF4D70F2FF7DF07F1C0014
:1006D000386A2030017FF07FD58152A396A50A5653
:1006E000A4C2158880042220810848200212888034
:1006F0000422208108482002128970C42218D1A443
:100700000741E8498D60C4221C91084820021288E4
:10071000800422208108482002128880042220813F
:1007200008482002128880042220810A57A48215DA
:10073000CA5A5493A0F3C1FF550039562030017FA7
:10074000F07FD58152A396A50A56A4C215888004CD
:100750002220810848200212888004222081084833
:100760002002128880042220810848200212A878E2
:10077000442A1C912E65ADAA4D9CFC210212888052
:10078000042A5C910A56286B514D82CE07FF57010F
:100790003A182030017FF0FFFFBF4470F23EF8FFAF
:1007A0002D8293F7C1FF69003B202030017FF0FFCD
:1007B000FFBF4470F23EF87F89E0E4ED4217F9C8CC
:1007C000862EF6F0C1DF06003C172030017FF0FFD7
:1007D0008691CDFF7FDA6C9BFFFF3EF83F08003D1E
:1007E000182030017FF0FFFFC73184F7C11FC4100C
:1007F000DE07FFFF7F1C003E172030017FF07FD017
:10080000D8E6FF3F6D96CDFF7F1FFCBF01003F3054
:100810002030017FF07FD58152A396A50A56A4C24D
:10082000158880042220C1C96DF2E3C42638B109BD
:100830004E6C82937DF01B0427EF83FFD300406A48
:100840002030017FF0FF971D28356A59AA60452A9C
:100850005C810848200212888004222081086310ED
:100860000211C62004228C410844188310883006E7
:100870002110610C4220C218844084310881086331
:10088000100211C62004228C4108441883108830BD
:100890000E228C8308E320C23888E064BCB42B4667
:1008A000B5E9451FFC9F0400416C2030017FF07FBB
:1008B000D58152A396A50A56A4C215888004222089
:1008C00081084820021288800422208108482002E2
:1008D000128880042220810848200212081F22204A
:1008E00081084820021288800422208108482002C2
:1008F0001288800422208108482002128880042265
:100900002081084820021288800422208108487C27
:10091000F07F1000426A2030017FF07F706AD5B20C
:10092000D495085724E215888004222081084820A5
:10093000021288800422208108482002128878440C
:10094000221CA1AA45318A558B7084221E91084829
:100950002002128880042220810848200212888008
:1009600004222081084820021288800422208188E5
:100970005720C215E94A96AAD6F4C1FF5500432272
:100980002030017FF07F755A95B2D2950A5D6C8256
:1009900093FFFFFFF1D2BE94B5AA367DF07F100021
:1009A00044702030017FF07F706AD5B2D49508572B
:1009B00024E21588800422208108482002128880C1
:1009C0000422208108482002128880042220810805
:1009D00048200212888004222081084820021288C0
:1009E000800422208108482002128880042220816D
:1009F0000848200212888004222081084820021220
:100A0000887805225C91AE64A96A4D1FFC5F0500E1
:100A100045272030017FF07F755A95B2D2950A5D47
:100A20006C8293FF71C9C9398293FFF1D2BE94B52C
:100A3000AA367DF07F100046212030017FF07F75BF
:100A40005A95B2D2950A5D6C8293FF71C9C93982F9
:100A500093FF7F1FFCBF0200474F2030017FF07FD4
:100A6000755A95B2D2950A5D6C8293FF430C2210A1
:100A70008308C42002318880042220810848200293
:100A800012888004222081084820021288800422D3
:100A900020810848200212A878442A1C912E65ADB6
:100AA000AA4D1FFC1F040048702030017FF07F908A
:100AB00084084820021288800422208108482002ED
:100AC0001288800422208108482002128880042293
:100AD00020810848200212888004222081084820B2
:100AE0007C88800422208108482002128880042209
:100AF0002081084820021288800422208108482092
:100B00000212888004222081084820021288800472
:100B10002220F1C1FF410049192030017FF07F926E
:100B2000627494E0E4FFFFFF472946F7C1FF4900E4
:100B30004A1D2030017FF07F92627494E0E4FFFF51
:100B4000FFED4217F1898E6CE6F2C1FF034B742072
:100B500030017FF07F9084084820021288800422B0
:100B60002081084820021288800422208108482021
:100B70000212888004222081885720C21589688546
:100B80002258B18855B0A9494E72532356C1085610
:100B90002CA2158A7045225E8108482002128880A6
:100BA0000422208108482002128880042220810823
:100BB0004820021288800422208108487CF07F109F
:100BC000004C1A2030017FF07F90E0E4FFFFFF1F10
:100BD0002FED4B59AB6AD307FF07014D822030013F
:100BE0007FF07F90840A57208319E8500742A1C400
:100BF0002448210A2282218C402042308240C45065
:100C000006810882100211C52804220C09114738F8
:100C100004222081084820021288800422208108B2
:100C2000482002128880042220810848200212886D
:100C3000800422208108482002128880042220811A
:100C400008482002128880042220810848200212CD
:100C500088800422208108487CF07F10004E92207A
:100C600030017FF07F90840848A0E211A878043218
:100C70001C810C47A0A311E868044218811046A00B
:100C800064112859042242A1084484421188104565
:100C90002210218A4420621488340A4422C521107B
:100CA000418A4320A214864044290C81085314022F
:100CB00011A62804224E4108449C82108840C52079
:100CC00010818A412022158240442A04810855045B
:100CD0000211AA0804225682889520822188600881
:100CE00022DA81887620C2198870C607FF07014F73
:100CF000702030017FF07FD58152A396A50A56A4BB
:100D0000C2158880042220810848200212888004AD
:100D1000222081084820021288800422208108486D
:100D20002002128880042220810848200212888034
:100D30000422208108482002128880042220810891
:100D4000482002128880042220810848200212A82C
:100D500070452A58A1AC4535093A1FFC5F05005083
:100D6000432030017FF07F706AD5B2D495085724B4
:100D7000E21588800422208108482002128880041D
:100D8000222081084820021288800422208188576E
:100D900020C215E94A96AAD6D4084EFEFF7DF0FF80
:100DA0000A0051812030017FF07FD58152A396A5A2
:100DB0000A56A4C215888004222081084820021205
:100DC0008880042220810848200212888004222082
:100DD00081084820021288800422208108482002CD
:100DE0001288800422208108482002128880042270
:100DF0002081084342842121C214854084290A812C
:100E00008853100211A720042A4E218A54982214D4
:100E1000CA5A5493A0C38B5DF06217BCD805277DD6
:100E2000700A0052702030017FF07F706AD5B2D412
:100E300095085724E2158880042220810848200262
:100E4000128880042220810848200212888004220F
:100E50005E81085724A215AA5A14A358B5885628AB
:100E6000C215897805222081084820021288800452
:100E7000222081084820021288800422208108480C
:100E800020021288800422208108482002121FFCC0
:100E90001F0400532D2030017FF07F755A95B2D288
:100EA000950A5D6C82937FBCB4A537B9E949BBE074
:100EB0000527FFED4217E94A96AAD6F4C1FF55006F
:100EC00054172030017FF07F8E237C90E0E4FFFFF9
:100ED000FF7F1FFC9F060055742030017FF07F903C
:100EE00084084820021288800422208108482002B9
:100EF000128880042220810848200212888004225F
:100F0000208108482002128880042220810848207D
:100F1000021288800422208108482002128880045E
:100F2000222081084820021288800422208108485B
:100F30002002128880042220810848A0E211A970B2
:100F400044BA94B5AA367DF07F1000567220300165
:100F50007FF07F908408482002128880042220813C
:100F600008482002128880042220810848200212AA
:100F700088800422208108482002128880042220D0
:100F8000810848200212888004222081084820021B
:100F90001288800422208108482002128880042AB6
:100FA0005C810C66244319CB4046338CF10C6244BF
:100FB000431893A9CA45B2B1890FFE4F0357822047
:100FC00030017FF07F90840848200212888004223C
:100FD00020810848200212888004222081084820AD
:100FE000021288800422208108482002128880048E
:100FF000222081084820021288800422208108488B
:10100000200212888004222081084820E2088740BC
:10101000842121A21885400441088188A10C021175
:101020008211042282218C4020852828310942A186
:10103000431DC860062A5C8108487CF07F10005878
:10104000742030017FF07F9084084820021288804D
:10105000042220810848200212888004222081086E
:10106000482002128880042220810A57208319C94F
:1010700050C63290D10C633C283AD289D0338CD1FF
:101080000C642C4319C960062A5C810848200212AE
:1010900088800422208108482002128880042220AF
:1010A00081084820021288800422208108487CF0B0
:1010B0007F1000594D2030017FF07F908408482038
:1010C00002128880042220810848200212888004AD
:1010D00022208108482002128880042220810848AA
:1010E0002002128880042A1E910A47A44B59AB6A39
:1010F0001327FFB70B5DA42B59AA5AD307FF57013B
:101100005A1D2030017FF07F1043789CFC76A1CBE4
:10111000FFFF36C1C9710CE17DF07F10005B182024
:1011200030017F708C1E2338F9FFFFFFFFFF718AAB
:10113000D17D7008005C512030017FF0218213BC0A
:10114000D8052F76C18B5DF06217BCD8052F76C10C
:101150008B5DF06217BCD8052F76C18B5DF06217EE
:10116000BCD8052F76C18B5DF06217BCD8052F76F1
:10117000C18B5DF06217BCD8052F76C18B5DF06224
:10118000179CF4C187005D172030017F708862745E
:101190009CFCFFFFFFFFFF317A1F1C03005E332022
:1011A00030017FF067896D64E42A95994E3488F1A7
:1011B0000C63340319CB50463298710C6714031A30
:1011C000A49005212841063B7CF0FFFFFFFF6F0143
:1011D0005F142030017FF0FFFFFFFFFFFF6F73847C
:1011E000EF83330060192030017FF027874EF062D3
:1011F0009BDF2E38F1C1FFFFFFFFFFBB00613F20E7
:1012000030017FF0FFFFE7A337358A55BBE00527A4
:10121000D7A655292B5DA970042A1E8108482002F3
:10122000128880042220810848200212A878442ACB
:101230001C912E65ADAA4D1FFC1F04006253203087
:10124000017FF07F90E0E47F7C6AD5B2D4950857A7
:1012500024E2158880042220810848200212888018
:10126000042220810848200212888004222081085C
:101270004820021288800422208108482002128817
:101280007805225C91AE64A96A4D1FFC5F0500637E
:10129000222030017FF0FFFF4F4CAB5256BA52A1D3
:1012A0008B4D70F2FFE3A57D296B556DFAE0FF20B1
:1012B0000064532030017FF0FF0AC1C9FFDAB42A6D
:1012C00065A52B158E40C5231001094440021190DD
:1012D00040042410010944400211904004241001EC
:1012E00009444002119040042410010944400211B5
:1012F0009040042450F1885438225DCA5A559B3ED0
:10130000F83F080065362030017FF0FFFF4F4CABFF
:101310005256BA52E108543C021190400424100184
:10132000094440021190400424103E4470F2786950
:101330005FCA5A559B3EF83F080066212030017F66
:10134000F07F7B998D74E2130B5D6C82937F188222
:101350007094E0E4FF7F1FFC9F0700675B20300173
:101360007FF0FFFF4F4CAB5256BA52E108543C029B
:1013700011904004241001094440021190400424BB
:101380001001094440021190400424100109444016
:1013900002119040042410010944400215AE480592
:1013A0002B54C52627C188179CE80427DB852ED23D
:1013B000952C55AD290168582030017FF07F90E0D1
:1013C000E47F7C6AD5B2D495085724E2158880045E
:1013D00022208108482002128880042220810848A7
:1013E000200212888004222081084820021288806E
:1013F00004222081084820021288800422208108CB
:10140000482002128880042220F1C1FF4100691C9B
:101410002030017FF07F9AE0E47DF07904A371F23F
:10142000FF7F1CC1681FFC9F05006A1E2030017FE2
:10143000F07F9AE0E47DF01B0427FFFFFFFF76A119
:101440008BBA54C526F798006B542030017FF07F8B
:1014500092E0E4FFD6E008453822158E40C5234EC1
:1014600001095344A2149220C5244641095154C590
:10147000AA594214951805254831895248C2149139
:1014800038052450F188543842158D58052358B139
:10149000885628C2118A78C307FF07016C1A2030CA
:1014A000017FF07F96E0E4FFFFFF1F2FED473AB387
:1014B000A9CB07FF27016D602030017FF0FFFFC738
:1014C000155234851C4B21885248920843902211B2
:1014D000862805220C09118684084342842121C2F2
:1014E00090106148883024441812220C0911868417
:1014F000084342842121C290106148888004222040
:101500008108482002128880042220810848200295
:10151000121FFC1F04006E562030017FF0FFFFC732
:10152000A7562D4B5D897045225E81084820021226
:10153000888004222081084820021288800422200A
:101540008108482002128880042220810848200255
:1015500012888004222081084820021288800422F8
:10156000208108482002121FFC1F04006F50203009
:10157000017FF0FFFF4F38506AD4B254C18A54B88B
:1015800002119040042410010944400211904004CB
:101590002410010944400211904004241001094420
:1015A0004002119040042410010944400215AE4845
:1015B000052B94B5A82641E783FFAB00705120307E
:1015C000017FF0FFFFC7A7562D4B5D897045225E56
:1015D00081084820021288800422208108482002C5
:1015E0001288800422208108482002128880042268
:1015F00020810848200212888004222081885720F8
:10160000C215E94A96AAD6D4084EFE870171502029
:1016100030017FF0FFFF4F4CAB5256BA52E10854F5
:101620003C021190400424100109444002119040F2
:1016300004241001094440021190400424100109BF
:101640004440021190400424100109444002158FC7
:10165000488523D2A5AC55B58993FF230072242079
:1016600030017FF0FFFF4F4CAB5256BA52E10854A5
:101670003C02119040042410C1C9FFFF3EF87F05D1
:1016800000732D2030017FF0FFFF4F4CAB5256BA54
:1016900052A18B4D70325EDAD29BDCF4A45DF082F5
:1016A00093DB852ED2952C55ADE983FFAB00741FDB
:1016B0002030017FF07F96E0E47F18827094E0E4B0
:1016C000FF1F2FED473AB3A9CB07FF27017556201F
:1016D00030017FF0FFFFC7094820021288800422F2
:1016E0002081084820021288800422208108482096
:1016F0000212888004222081084820021288800477
:101700002220810848200212888004222081084873
:10171000200212A87804321C912E65AD8A511FFC5C
:101720001F040076562030017FF0FFFFC7094820D4
:101730000212888004222081084820021288800436
:101740002220810848200212888004222081084833
:101750002002128880042220810848A0C215A960B6
:10176000C52A54D10A54BCC214B120C52C44519589
:101770008B6463131FFC9F060077602030017FF0AD
:10178000FFFFC709482002128880042220810848F0
:10179000200212888004222081084342842121C231
:1017A00090106148883024441812220C0911868454
:1017B000084342842121C290106148883024441893
:1017C000122A0A61885410C21029218A4288B20E56
:1017D000A2B482281FFC1F040078542030017FF03F
:1017E000FFFFC709482002128880042A5C910A562C
:1017F000AC4215AD40C52B4C110B52CC421455B91F
:101800000846AE520B51CC8214B130C52B50D10AD0
:101810005530D22A58A10A56A4C215A87005222014
:101820008108482002128880C407FF0701795D20E3
:1018300030017FF0FFFFC709482002128880042290
:101840002081084820021288800422208108482034
:101850000212888004222081084820021288800415
:101860002220810848200212888004222081084812
:10187000200212A878442A1C912E65ADAA4D9C7CAA
:10188000BBD045BA92A5AA3525007A1A2030017F2F
:10189000F0FFFFC73184C7895DE8F2FF9FC610DE05
:1018A00007FF07017B312030017F7075998D74E24D
:1018B000130B5D6C8293FF6F17DAC846556C72117B
:1018C0008C8693AB6CD32E38F9FFF1D27EA4339B78
:1018D000BA7C7008007C142030017FF067094EFE4E
:1018E000FFFFFFFF7F1FFC59007D312030017F701B
:1018F00068A9CD74E4B30B5E70F2FFE3C5366DE505
:101900002618DD4DAC528D6CE862139CFC7FBBD079
:10191000457CA2239BB97C7015007E2F2030017F6F
:10192000F0FFFFFF0CB188852442298848CC219024
:10193000218C52A08218C340846912711645A0649C
:1019400011AAF8E0FFFF7F04007F112030017FF033
:10195000FFFFFFFFFFFFFF9F0000A0112030017F6E
:10196000F0FFFFFFFFFFFFFF9F0000A118203001E5
:101970007FF07F9AE0641FFC2B0427FFFFFFFBE052
:10198000FF3400A2552030017FF0FFFF0AC1C9EAF1
:10199000B42A65A52B158680C52120810848200220
:1019A00012888004222081084820021288800422A4
:1019B00020810848200212888004222081084820C3
:1019C0000212888004226071885818225ECA5A5513
:1019D0009B28C1C93EF8A300A3302030017FF07FCF
:1019E00019B1CC7422040B53BC02158E50842314FD
:1019F000E1084EFE618AD14182937F9BE0C4263884
:101A0000A13184F7C1FF4100A43D2030017FF0FFE8
:101A10001F3690D10C633C8318D110C664A613A165
:101A200027350319AC500523FF7FAC50053390D107
:101A3000A407456732D310463488F10C6334031988
:101A40001FFCFF8701A5492030017FF07F908408AB
:101A50004824C2118A70C42218592314E108453C55
:101A60000211904044240C2109434C8210942044DC
:101A700025046109415C0423D9D0C6263819A5186C
:101A80001D253819A5181D2538D907FFA701A61847
:101A90002030017FF067094EFEFFF7C1BF4270F2B0
:101AA000FFBF0FFE2C00A7472030017FF03793DAED
:101AB000C80742B030862B50E1084EC64BDBB41944
:101AC000EA44E849AE40452B54C1C8FF1F2B54D10E
:101AD0000A5438E941D1A1CC36ED82179C9C2B5099
:101AE000E10C5340083EB2A9C9077F1300A821208A
:101AF00030017FF0FF590211904004241001094485
:101B00004002119040C407FFFFFFFFFFAF02A97121
:101B10002030017FF0FF7FDD8152A396A50A56A4F5
:101B2000C215888004222081088308021144110410
:101B300022C62208448C45108810452210210845F1
:101B40002042108A408420148108412802118250CA
:101B5000042204A1084488221188188B2010311611
:101B6000412082288240844104810848200212A832
:101B700070452A58A1AC4535093A1FFC5F0500AAFB
:101B8000302030017FF02793BB548636BBE0052719
:101B900051463AF1058B434002119040042C0E113E
:101BA0005FD2A1CC07472108F7C1FFFFFF2B00AB95
:101BB000462030017FF0FFFFFF92418C6710E31950
:101BC000C47806319E418C6710E319C47806319EB3
:101BD000418C6710031AC4880631A2418C68102317
:101BE0001AC4880631A2418C6810231AC4880631B1
:101BF0003EF8FFA300AC152030017FF0FFFFC73196
:101C000084C7C9FF7DF0FFFFC701AD142030017FFD
:101C1000F0FFFFFFEF508CEE83FFFFFF3700AE7A3F
:101C20002030017FF0FF971D28356A59AA60452AA8
:101C30005C81084820021288100A21102196412058
:101C400042308240846004810841104210881004B0
:101C500021048108C108021182110422C4320844FF
:101C60000885108810C420214210841004220441E9
:101C700008412042108410042204410841204210EF
:101C80008410042220810848A0C215A96085B216DC
:101C9000D524E87CF0FF9701AF142030017F700C51
:101CA00082701FFCFFFFFFFFFFFF2700B0362030D0
:101CB000017FF0DF35B05299E9C88214B1300524B4
:101CC000100109444002119040042410010944C04D
:101CD000C214B12085742653156C7CF0FFFFFFFF02
:101CE0002400B11D2030017FF0FFFF06C1C98F52D3
:101CF0008C8E129CFC3E384C31BA0FFEFF2C00B289
:101D0000262030017FF0DF35B05299E9C4C210912E
:101D1000400427DBC42E74F92B442C0C01E17DF028
:101D2000FFFFFF3B00B3302030017FF0DF35B052C2
:101D300099E9C4C21091400427DB854D2E82119C85
:101D4000F08293410211B03084742653156C7CF0FC
:101D5000FFFFFF6300B41A2030017FF0D7074EEC7D
:101D6000421BD97CBAD8C407FFFFFFFFFFAF03B502
:101D7000282030017FF0FFFFC70946FEFFFFFFFF6D
:101D8000C70A652C03214A339A2102230E430CC44F
:101D90001486E0E47F1800B67C2030017FF07F7568
:101DA0005A95B2D2950A42180215853004220C09C0
:101DB000118684084342842121C2901061488830F2
:101DC000244418122A0A61885410C210A93184626E
:101DD0000CB11643B4C410923084240C210943483A
:101DE000C210923084240C21094348C210923084DE
:101DF000240C21094348C210923084240C21094349
:101E000048C210923084240C21094348C2101FFCA0
:101E10001F0400B7142030017FF0FFFFFF16C1C977
:101E2000FBE0FFFFFFD700B81B2030017FF0FFFF72
:101E3000FFFFFFFF118293B70B5DE4231BBAD8C3EA
:101E40000400B9212030017FF01F2676A18D7C602F
:101E5000141E0281054170F27F98A16C1FFCFFFFE8
:101E6000FF1200BA3A2030017FF0DF35B05299E915
:101E7000C88214B130052410010944400211904079
:101E8000042410010944C0C214B1208574265315DE
:101E90006C7C701982701FFCFFFFBF0200BB4620E4
:101EA00030017FF0FFFFFF82418C6810231AC48845
:101EB0000631A2418C6810231AC4880631A2418CD5
:101EC0006810031AC47806319E418C6710E319C468
:101ED0007806319E418C6710E319C47806313EF8CC
:101EE000FFE300BC602030017F708AD88536F28124
:101EF000517808041604C1C90F12887805229C8104
:101F0000887620821D89588761CC71987220861C42
:101F10008919073EFF0BC43C04218F41C48310F094
:101F200028042190610842A0E2108440244250829B
:101F30001094200425084109425008C2618293F799
:101F4000C12900BD5C2030017F708AD88536F281BE
:101F5000517808041604C1C90F12887805229C81A3
:101F6000887620821D89588761CC71987220861CE2
:101F70008919073EFF88E18EA1AC6330E918CE399C
:101F800046610873100211E488043124418A491023
:101F90006212BBD0E5AF10B1300484F7C11900BEA6
:101FA000692030017F70CBC04A65A6130B43440201
:101FB000119C6C1736B9084670C20B4440E214906D
:101FC000300624CA41084490A3148620C771C691E4
:101FD00098712C651CCE20073EFF0BC43C04218F5A
:101FE00041C48310F028042190610842A0E21084CB
:101FF0004024425082109420042508410942500890
:10200000C2618293F7C12900BF302030017FF07F89
:102010009AE0E47DF01B0427DB042736C1894D706C
:1020200062931F27070944400215AE48052B94B55B
:10203000A82641E783FFAB00C0712030017F102B41
:10204000B6F976F141D68152A396A50A56A4C215D7
:1020500088800422208108482002128880042220DF
:10206000810848200212888004222081084820022A
:1020700012081F2220810848200212888004222092
:10208000810848200212888004222081084820020A
:1020900012888004222081084820021288800422AD
:1020A000208108487CF07F1000C1722030017FD071
:1020B0002CB491CDD3C5076D074A8D5A962A5891F5
:1020C0000A57200212888004222081084820021228
:1020D000888004222081084820021288800422205F
:1020E000810848207C888004222081084820021230
:1020F000888004222081084820021288800422203F
:102100008108482002128880042220810848200289
:10211000128880042220F1C1FF4100C27A203001E0
:102120003B621B19B94A65A6218C68100316A6F8F4
:10213000E0AA03A5462D4B15AC48852B1001094498
:1021400040021190400424100109444002119040C3
:1021500004241001094440021190400424103E441C
:1021600040021190400424100109444002119040A3
:102170000424100109444002119040042410010974
:10218000444002119040042410010944400211907F
:10219000F8E0FF2000C3822030017FD03212B194DA
:1021A0004328A614C919063286938AC228E2288BCE
:1021B00048C60751074A8D5A962A58910A57200255
:1021C000128880042220810848200212888004227C
:1021D000208108482002128880042220810848209B
:1021E0007C888004222081084820021288800422F2
:1021F000208108482002128880042220810848207B
:10220000021288800422208108482002128880045B
:102210002220F1C1FF4100C47D2030017F902210B7
:1022200001094440021190400424100109447C70CB
:10223000D58152A396A50A56A4C2158880042220EF
:102240008108482002128880042220810848200248
:10225000128880042220810848200212081F2220B0
:102260008108482002128880042220810848200228
:1022700012888004222081084820021288800422CB
:102280002081084820021288800422208108487C8E
:10229000F07F1000C57F2030013B621B19B94A2531
:1022A00008410942508210942044552E928D4D5C75
:1022B000074A8D5A962A58910A572002128880049C
:1022C00022208108482002128880042220810848A8
:1022D0002002128880042220810848207C88800403
:1022E0002220810848200212888004222081084888
:1022F000200212888004222081084820021288804F
:102300000422208108482002128880042220F1C182
:10231000FF4100C66C2030017FF07F755A95B2D224
:10232000950A43C0E2109040042410010944400281
:1023300011904004241001094440021190400424EB
:1023400010010944400211104378880409444002F6
:1023500011904004241001094440021190400424CB
:102360001001094440021190400424100109444026
:10237000023188400C22108308C47CF07F1000C713
:102380002B2030017FF07F755A95B2D2950A5D6C93
:102390008293FFFFFFF1D2BE94B5AA36518293B764
:1023A0000B5DE4231BBAD8430400C82C2030017F06
:1023B000102BB6F976F141765A95B2D2950A5D6C3A
:1023C0008293FF71C9C9398293FFF1D2BE94B5AA35
:1023D000367DF07F1000C92D2030017FD02CB491C4
:1023E000CDD3C507ED6955CA4A572A74B1094EFEC7
:1023F000C72527E7084EFEC74BFB52D6AADAF4C121
:10240000FF4100CA352030013B621B19B94A65A65D
:10241000218C68100316A6F8E0EAB42A65A52B15EE
:10242000BAD80427FFE39293730427FFE3A57D291D
:102430006B556DFAE0FF2000CB382030017F9022F1
:102440001001094440021190400424100109447C09
:1024500070755A95B2D2950A5D6C8293FF71C9C9A5
:10246000398293FFF1D2BE94B5AA367DF07F100079
:10247000CC1E2030017F102BB6F976F141936274A7
:1024800094E0E4FFFFFF472946F7C1FF4900CD1F55
:102490002030017FD02CB491CDD3C507618AD151B2
:1024A0008293FFFFFF1FA518DD07FF2701CE27201E
:1024B00030013B621B19B94A65A6218C68100316CE
:1024C000A6F8E024C5E828C1C9FFFFFF8F528CEEB3
:1024D00083FF9300CF2A2030017F9022100109440E
:1024E00040021190400424100109447C70926274EF
:1024F00094E0E4FFFFFF472946F7C1FF4900D06E93
:102500002030017FF07F706AD5B2D495085724E25D
:102510001588800422208108482002128880042225
:102520002081084820021288800422208108482047
:1025300002120442048110412044100891208108B5
:102540004820021288800422208108482002128834
:1025500080042220810848200212888004225E81A3
:102560000857A42B59AA5AD307FF5701D1AA2030E4
:10257000017FD03212B1944328A614C919063286BD
:10258000938AC228E2288B48C6073D02128880043D
:102590002A1E818A4720C311C870043A1A818E46C8
:1025A0002084110861044A168192452022148A4031
:1025B000442814810851240211A24804224681486B
:1025C000A34024521C0211A43804224A61084494F6
:1025D000C2108830452110618A4220E2148440C430
:1025E00029088108540C0211A81804225221084419
:1025F000A442108850452010A18A402062258858A6
:1026000009221882088620A21D886807229C81085A
:10261000677CF07F1000D2752030017F102BB6F957
:1026200076F141D68152A396A50A56A4C215888098
:102630000422208108482002128880042220810878
:102640004820021288800422208108482002128833
:1026500080042220810848200212888004222081E0
:102660000848200212888004222081084820021293
:102670008880042220810848200212A870452A5828
:10268000A1AC4535093A1FFC5F0500D37620300127
:102690007FD02CB491CDD3C5076D074A8D5A962AA9
:1026A00058910A572002128880042220810848206D
:1026B00002128880042220810848200212888004A7
:1026C00022208108482002128880042220810848A4
:1026D000200212888004222081084820021288806B
:1026E00004222081084820021288800422208108C8
:1026F00048A0C215A96085B216D524E87CF07F15E4
:1027000000D47E2030013B621B19B94A65A6218C9A
:1027100068100316A6F8E0AA03A5462D4B15AC4891
:10272000852B100109444002119040042410010936
:1027300044400211904004241001094440021190C9
:102740004004241001094440021190400424100167
:102750000944400211904004241001094440021130
:102760009040042410010944400211904004245078
:10277000E18A54B042598B6A12743EF8BF0A00D500
:10278000862030017FD03212B1944328A614C91993
:10279000063286938AC228E2288B48C60751074A28
:1027A0008D5A962A58910A572002128880042220B6
:1027B00081084820021288800422208108482002D3
:1027C0001288800422208108482002128880042276
:1027D0002081084820021288800422208108482095
:1027E0000212888004222081084820021288800476
:1027F0002220810848A0C215A96085B216D524E818
:102800007CF07F1500D6812030017F9022100109D5
:102810004440021190400424100109447C70D58189
:1028200052A396A50A56A4C21588800422208108C6
:102830004820021288800422208108482002128841
:1028400080042220810848200212888004222081EE
:1028500008482002128880042220810848200212A1
:1028600088800422208108482002128880042220C7
:10287000810848200212A870452A58A1AC453509A4
:102880003A1FFC5F0500D7482030017FF0FF7F78BA
:1028900090032220810A57208319C950C63290D153
:1028A0000C633C8318D110C664AA72118C5CA532EB
:1028B000D310463488F10C63340319CB5046329858
:1028C000810A572002126890C307FFFF8701D89240
:1028D0002030017FF02F109CD8A526316A51CB52B1
:1028E000854250B11044AC04112B41842A02810866
:1028F00055040211A910042252210844A062108834
:1029000040C52010710A4220E214844084290A81C3
:102910000853140211A53004224A61084490E210C1
:102920008820C52110310A441A05228922118810F5
:10293000452210110A452022148A40C92250B208AB
:10294000843002218C404723D0D10864B40219ACF2
:102950004857B254B526467062139CF8E0DF000079
:10296000D97A2030017F102BB6F976F1419180049D
:1029700022208108482002128880042220810848F1
:1029800020021288800422208108482002128880B8
:102990000422208108482002128880042220810815
:1029A00048200212888004222081084820021288D0
:1029B000800422208108482002128880042220817D
:1029C00008482002128880042220818A47A4C2116C
:1029D000E952D6AADAF4C1FF4100DA7B2030017F48
:1029E000D02CB491CDD3C50759021288800422207F
:1029F0008108482002128880042220810848200291
:102A00001288800422208108482002128880042233
:102A10002081084820021288800422208108482052
:102A20000212888004222081084820021288800433
:102A30002220810848200212888004222081084830
:102A40002002128880042A1E910A47A44B59AB6ABF
:102A5000D307FF0701DB822030013B621B19B94A13
:102A600065A6218C68100316A6F8E0200911904095
:102A7000042410010944400211904004241001096B
:102A80004440021190400424100109444002119076
:102A90004004241001094440021190400424100114
:102AA00009444002119040042410010944400211DD
:102AB0009040042410010944400211904004241065
:102AC0000109444002119040C52352E18874296BEA
:102AD000556DFAE0FF2000DC852030017F90221048
:102AE00001094440021190400424100109447C7003
:102AF00090840848200212888004222081084820FF
:102B00000212888004222081084820021288800452
:102B1000222081084820021288800422208108484F
:102B20002002128880042220810848200212888016
:102B30000422208108482002128880042220810873
:102B4000482002128880042220810848A0E211A9AE
:102B50007044BA94B5AA367DF07F1000DD55203060
:102B6000017FD02CB491CDD3C507590212888004BF
:102B700022208108482002128880042220810848EF
:102B800020021288800422208108482002128880B6
:102B9000042220810848A0E211A97044BA94B5AA81
:102BA0003671F27FBBD045BA92A5AA357DF07F156C
:102BB00000DE552030017FF0FF47094E7E7C6AD54C
:102BC000B2D495085724E215888004222081084851
:102BD0002002128880042220810848200212888066
:102BE00004222081084820021288800422208108C3
:102BF00048200212887805225C91AE64A96A4D8D46
:102C0000E0E4F7C17100DF672030017FF07F55A15C
:102C10004E849EE40A54B442158CFCFF5B05235697
:102C2000C1085534021D8D208A2308C308D22C8286
:102C3000388A6047225C91885720E21588800422F8
:102C4000208108482002128880042220810841281F
:102C500002118250042244810A4408C31888185083
:102C600022069408E228C2281FFC1F0500E0472026
:102C700030017FF027874EF0629BDF2E38F1C1D103
:102C8000E84D8D62D52E78C1C9B56955CA4A572A13
:102C90001C818A4720021288800422208108482053
:102CA00002128880042A1E910A47A44B59AB6AD3AA
:102CB00007FF0701E1492030017FF0D7074EEC42C2
:102CC0001BD97CBAD8C407A7A337358A55BBE00502
:102CD00027D7A655292B5DA970042A1E81084820F4
:102CE00002128880042220810848200212A8784419
:102CF0002A1C912E65ADAA4D1FFC1F0400E257202F
:102D000030017FF067896D64E42A95998630A2418D
:102D10008C6718A319C860852A18890D6EF8E060C1
:102D2000F4A646B16A17BCE0E4DAB42A65A52B150F
:102D30008E40C52310010944400211904004241024
:102D40000109444002158F488523D2A5AC55B5E949
:102D500083FF8300E35D2030017FF01789452C2439
:102D6000114A4144620E810C61940215C418062276
:102D70004C9388B32802258B50C5075F8DDED4287D
:102D800056ED82179C5C9B56A5AC74A5C211A87821
:102D90000422208108482002128880042220810811
:102DA00048A0E211A97044BA94B5AA367DF07F100C
:102DB00000E4502030017FF07F944004241001098A
:102DC000444002119040042410F1C147A337358AD2
:102DD00055BBE00527D7A655292B5DA970042A1EEF
:102DE000810848200212888004222081084820029D
:102DF00012A878442A1C912E65ADAA4D1FFC1F0411
:102E000000E55A2030017FF055422357A90C2508D0
:102E100031094348C210923084240C31094250A633
:102E20002A17D1C40777A337358A55BBE00527D7C2
:102E3000A655292B5DA970042A1E8108482002127C
:102E40008880042220810848200212A878442A1C85
:102E5000912E65ADAA4D1FFC1F0400E652203001E3
:102E60007FF0FFFFE711A2A8442CCA06114244A339
:102E700010923084240C21094348C2102D31C45AC9
:102E80000CA1AC74A58238A8280E220C2109434855
:102E9000C210923084240C210943C8A214B21847EE
:102EA000BC94B510B1B482281FFC1F0400E72B208E
:102EB00030017FF0FFFF4F4CAB5256BA52A18B4D01
:102EC00070F2FFE3A57D296B556DA204276F17BA39
:102ED000C8473674B1870800E83E2030017FF027EC
:102EE000874EF0629BDF2E38F1C1DD6955CA4A5723
:102EF0002A1C818A472002128880042220810848E7
:102F0000200212888004C287084E1E2FED4B59AB59
:102F10006AD307FF0701E9402030017FF0D7074E51
:102F2000EC421BD97CBAD8C407D7A755292B5DA979
:102F300070042A1E81084820021288800422208101
:102F40000848200212081F223879BCB42F65ADAAA8
:102F50004D1FFC1F0400EA4E2030017FF067896D91
:102F600064E42A95998630A2418C6718A319C86039
:102F7000852A18890D6EF8E0E6B42A65A52B158E12
:102F800040C523100109444002119040042410015F
:102F900009444002E14304278F97F6A5AC55B5E9F3
:102FA00083FF8300EB472030017FF07F94400424AF
:102FB000100109444002119040042410F1C177A788
:102FC00055292B5DA970042A1E8108482002128809
:102FD00080042220810848200212081F223879BC70
:102FE000B42F65ADAA4D1FFC1F0400EC1F2030015B
:102FF0007FF027874EF0629BDF2E38F1C161749C11
:10300000FCFF1F4730DA07FF6701ED222030017F08
:10301000F0B7074EEC421BD97CBAD8C4072F201852
:103020008D93FFFFE30846FBE0FF2C00EE302030DD
:10303000017FF067896D64E42A95998630A2418CFE
:103040006718A319C860852A18890D6EF8E02882D0
:10305000D138F9FF3F8E60B40FFECF02EF28203049
:10306000017FF07F94400424100109444002119034
:1030700040042410F1C187D171F2FF7F1CC1681F89
:10308000FC9F0500F0672030017FF01F2408410BF2
:103090005150A62A17C94646AE52196A046316C390
:1030A000904431B6493E4F6AD4B254C18A54B802F2
:1030B000119040042410010944400211904004245E
:1030C00010010944400211904004241001094440B9
:1030D00002119040042410010944400215AE480535
:1030E0002B94B5A82641E783FFAB00F17420300193
:1030F0007FF01789452C24114A4144620E810C61EE
:10310000940215C41806224C9388B32802258B50CC
:10311000C507DF9C5AB52C7525C215897805222074
:103120008108482002128880042220810848200259
:1031300012888004222081084820021288800422FC
:10314000208108482002128880042220810848201B
:10315000021288800422208108487CF07F1000F24F
:10316000592030017FF027874EF0629BDF2E38F127
:10317000C15D074A8D5A962A58910A572002128833
:1031800080042220810848200212888004222081A5
:103190000848200212888004222081084820021258
:1031A0008880042220810848A0C215A96085B21633
:1031B000D524E87CF07F1500F35A2030017FF0B76A
:1031C000074EEC421BD97CBAD8C407F71D28356AD4
:1031D00059AA60452A5C810848200212888004228E
:1031E000208108482002128880042220810848207B
:1031F000021288800422208108482002128880045C
:103200002220810A57A48215CA5A5493A0F3C1FF01
:103210005500F4692030017FF067896D64E42A95D8
:10322000998630A2418C6718A319C860852A18892D
:103230000D6EF8E0A603A5462D4B15AC48852B1066
:103240000109444002119040042410010944400245
:1032500011904004241001094440021190400424BC
:10326000100109444002119040042450E18A54B0F6
:1032700042598B6A12743EF8BF0A00F56E20300185
:103280007FF01789452C24114A4144620E810C615C
:10329000940215C41806224C9388B32802258B503B
:1032A000C5071F76A0D4A865A98215A9700522209C
:1032B00081084820021288800422208108482002C8
:1032C000128880042220810848200212888004226B
:1032D000208108482002128880042A5C910A56281E
:1032E0006B514D82CE07FF5701F6612030017FF010
:1032F0007F944004241001094440021190400424AA
:1033000010F1C1771D28356A59AA60452A5C8108E9
:103310004820021288800422208108482002128856
:103320008004222081084820021288800422208103
:1033300008482002128880042220810A57A482159E
:10334000CA5A5493A0F3C1FF5500F71C2030017FE7
:10335000F0FFFF2B0427EF83C314A3FBE030C1C9A8
:10336000FBE0FF7F0100F8612030017FF0FFFF4F9D
:10337000386448522010763054300315CD40443B19
:1033800010C11044AC04114A41443202810864085F
:103390000211C71804228C41084414A31088208607
:1033A0002110318C4320421888148C442045112868
:1033B00059044218810E56208315083B1822829426
:1033C00006E27CF07F1500F95E2030017FF0278750
:1033D0004EF0629BDF2E38F1C14902128880042230
:1033E0002081084820021288800422208108482079
:1033F000021288800422208108482002128880045A
:103400002220810848200212888004222081084856
:103410002002128880042A1E910A47A44B59AB6AE5
:10342000D307FF0701FA602030017FF0B7074EECA9
:10343000421BD97CBAD8C407A70948200212888049
:10344000042220810848200212888004222081085A
:103450004820021288800422208108482002128815
:1034600080042220810848200212888004222081C2
:103470000848200212A878442A1C912E65ADAA4D56
:103480001FFC1F0400FB6E2030017FF067896D6414
:10349000E42A95998630A2418C6718A319C86085E3
:1034A0002A18890D6EF8E01C010944400211904071
:1034B0000424100109444002119040042410010921
:1034C000444002119040042410010944400211902C
:1034D00040042410010944400211904004241001CA
:1034E00009444002158F488523D2A5AC55B5E98320
:1034F000FF8300FC672030017FF07F94400424109C
:103500000109444002119040042410F1C1270948E8
:10351000200212888004222081084820021288801C
:103520000422208108482002128880042220810879
:103530004820021288800422208108482002128834
:1035400080042220810848200212A878442A1C9175
:103550002E65ADAA4D1FFC1F0400FD672030017FC2
:10356000F0B7074EEC421BD97CBAD8C407A709486C
:1035700020021288800422208108482002128880BC
:103580000422208108482002128880042220810819
:1035900048200212888004222081084820021288D4
:1035A00080042220810848200212A878442A1C9115
:1035B0002E65ADAA4D9C7CBBD045BA92A5AA3525F7
:1035C00000FE542030017FF07F90E0E47F7C6AD5DC
:1035D000B2D495085724E215888004222081084837
:1035E000200212888004222081084820021288804C
:1035F00004222081084820021288800422208108A9
:1036000048200212887805225C91AE64A96A4D8D2B
:10361000E0E47F1800FF6E2030017FF07F944004CB
:1036200024100109444002119040042410F1C127E4
:1036300009482002128880042220810848200212B2
:1036400088800422208108482002128880042220D9
:103650008108482002128880042220810848200224
:10366000128880042220810848200212A878442A67
:103670001C912E65ADAA4D9C7CBBD045BA92A5AAE3
:1036800035250000000004FFFF0000BF0203020315
:1036900004010204060A00FE07FE0700017602F993
:1036A000093C2007D6F8F92300210AD6F891B43B4B
:1036B000985300220BD6F8932CC9929C3700231004
:1036C000D6F8932C890629890629C9929C00240DD5
:1036D000D6F891704AC23189C69C02250DD6F8A34E
:1036E000A429092B51D29413260ED6F8C3244BC219
:1036F0004A53A6E430002709D6F891B4CE23002817
:1037000009D6F8A1B05AAE132909D6F8E36AB14E2A
:10371000022A0ED6F8D12C4AA2414AA22CA7022B8B
:103720000AD6F8F1341BB434672C09D6F87913EBB8
:1037300018002D09D6F8D9069D1B002E09D6F87958
:103740000BC71C022F0AD6F8B134EC9AD300301004
:10375000D6F8913089B2244BB22809730A00310C93
:10376000D6F891504BD2B6418701320CD6F8A72C2F
:10377000CDB4301D7418330CD6B807350CE5248B46
:103780007602340DD6F8A1504BA2D220A6390135CD
:103790000DD6B807254D24294DB26827360DD6F829
:1037A000112D4C13494AB26827370BD6B807354C50
:1037B000C36A4E02380DD6F8A72CC9A2294BB268AD
:1037C00027390DD6F8A72C892C6998E914003A0CF2
:1037D000D6F8F170CCC170CC21003B0BD6F8F1705B
:1037E000CC41B18E013C09D6F8B1B0B91D063D0AF5
:1037F000D6F889833EE88C003E09D6F8E3C67612F7
:10380000003F0BD6F8A72CACE6604E01400CD6F872
:10381000A72C89942E52BC134110D6F8913089B24E
:10382000244B06254BB21C06420CD6B8872C6ADA0C
:10383000A2962127430BD6F8A72C49DBA29D004472
:103840000BD6B8872CEA5F869C00450DD6B80725B5
:103850004D87284D071D06460CD6B807254D8728ED
:10386000ADD300470CD6F8A72C494B4A16ED0448B7
:1038700010D6B8B3244BB26450B2244BB21C0649E4
:1038800008D6F8C7B4E34E4A0BD6F891316DAAE9D1
:1038900014004B0ED6B8B324AA64629245B51C0638
:1038A0004C09D6B8D35E071D064D0ED6B8B3244BCF
:1038B0002CDD922CC972184E0FD6B8B3244BA4A499
:1038C000939225590E034F0ED6F8A72CC9922CC9F6
:1038D000922CDA09500DD6B887284BB26488D23AB8
:1038E0000D510ED6F8A72CC9922CC992A6390752B1
:1038F00010D6B887284BB26488922CAAE5300053C2
:103900000CD6F8A72C89E7248B76025409D6B80781
:103910002DED9D02550FD6B8B3244BB2244BB224E3
:103920008B76025610D6B8B3244BB228C9922C0914
:10393000730A00570ED6B8B3244BB2A42F962C8727
:1039400001580FD6B8B3248B92B012654996C300C4
:10395000590CD6B8B3248B92306DA7005A0BD6B849
:103960000735EC3AE830005B08D6F8B7B4EB4E5CAC
:1039700009D6B8D3B86B0E035D08D6F8D7DE760249
:103980005E0BD6F8913089B29C27005F08D6F8F913
:103990003CE8006008D6B8E29C5F00610DD6F8A94B
:1039A0007334245934E43000620DD6B8D38A242508
:1039B000592225894E630BD6F8A95396A459B413FE
:1039C000640ED6F8B134524A4A9644961C06650BEA
:1039D000D6F8A953960C4ABC13660CD6F8112D2ABA
:1039E0000E595A2701670FD6F8A94392255934A4D6
:1039F00049164D00680ED6B8D38A24255992255908
:103A00000E03690AD6F8911C531B77026A0BD6F88D
:103A1000B11C539BBA49006B0DD6B8D35A12455B03
:103A200054CB61006C08D6F8D51E77026D0BD6F822
:103A3000894A94F46F390C6E0ED6F8898924255979
:103A40009225590E036F0CD6F8A95396644916EDCA
:103A500004700FD6F8898924255922258994A60057
:103A6000710DD6F8A94A49C992C8925600720BD670
:103A7000F889892425699D06730AD6F8A9533C273D
:103A8000434E740BD6F8D370C8D252A613750DD618
:103A9000F8895992255912597218760DD6F8895914
:103AA00092454996843905770CD6F8895992257D37
:103AB0004A7202780DD6F8895994849528CB610012
:103AC000790ED6F88959922591254DB268027A0B64
:103AD000D6F88983D838E830007B0CD6F8212DCE73
:103AE000E430D661007C09D6F891B4EF14007D0B68
:103AF000D6F8E530D6E24CA7007E0AD6F8A3A45348
:103B0000CE1B00A007D6F8F92300A10AD6F8911C15
:103B10004CBB5300A20FD6F8F170486A4996844313
:103B2000964300A30DD6F8112D2A8E6994243A01EC
:103B3000A40DD6F88959B425D994E53000A50ED640
:103B4000B8B3248B92301BB4B40E01A60BD6F891F7
:103B5000B40EA6750A00A70DD6F8A7748BB2285B21
:103B6000A31D01A807D678EAFC01A90CD6F8A72C5A
:103B70006991926ED14EAA0DD6F891A9454B726407
:103B8000C8A900AB0ED6F8C9511225511665518E41
:103B900002AC09D6F81987346704AD09D6F819873D
:103BA0009C1B00AE0ED6F8A72C59122991922CDA44
:103BB00009AF08D638069D9F01B00AD6F8913009A2
:103BC000731E01B10CD6F8F1341BB4341B7418B257
:103BD0000BD6B8B4282C0E393700B30AD678E64C89
:103BE0008E768E00B408D6F8C29C9F00B50FD6F82A
:103BF0008959922559222589948300B610D6F887D1
:103C000064499648C9922CC9921C06B708D6F8593F
:103C100073AE00B808D6F8F929CC00B909D6B84275
:103C2000B5B87304BA0CD6F8112D6AD3A121A70236
:103C3000BB0DD6F889511665511225514EBC0DD6D3
:103C40007842B538855A120D690CBD0DD67842B54B
:103C5000B884491A863300BE0ED638E430CEA4505C
:103C60004BA221CD01BF0BD6F8911C4CC35AB41303
:103C7000C00FD678E270CA922C19942CC97218C160
:103C80000FD6F8C270CA922C19942CC97218C2109F
:103C9000D6B8C2249BB2244B06254BB21C06C311D6
:103CA000D678A224D1A62CC99241C9922C8701C4EE
:103CB00010D678EAD094255932285992E53000C5BB
:103CC00010D6B8C2249BB2244B06254BB21C06C6A4
:103CD0000ED6F8912129350D43D4B4A300C70BD6D5
:103CE000F8A72C49DBA2B108C80ED678C24149D347
:103CF000214AD3418701C90ED6F8A24149D3214AAE
:103D0000D3418701CA0ED6B8B24149D3214AD34123
:103D10008701CB0ED6784A8392A64394A6830E03DE
:103D2000CC0AD678E2704C1B7702CD0AD6F8C27066
:103D30004C1B7702CE0BD6B8C2241BD3C69D00CF36
:103D40000AD678EAD09836EE04D00CD6B8872C6A1A
:103D500059A22E434ED111D6B8922889B2444A3A7C
:103D6000295992E53000D20ED678E270CA922CC959
:103D7000922CDA09D30ED6F8C270CA922CC9922CB2
:103D8000DA09D40FD6B8C2249BB2244BB2248B7666
:103D900002D510D6B89228C9A62CC9922CC9A29DCA
:103DA00000D60ED678EAD0942559922559B413D767
:103DB0000DD6F8895994849528CB6100D80ED6F891
:103DC000A7488994162991A29D00D90ED678E2AC15
:103DD000922559922559B413DA0ED6F8C2AC922521
:103DE00059922559B413DB0FD6B8C22447B2244BDD
:103DF000B2248B7602DC0FD678EA48966449966442
:103E00004916ED04DD0DD6F8C2AC92454998D62985
:103E100000DE0DD6B8D321CA92214AEB3400DF0E62
:103E2000D6F8A72C892A59544B129D00E00ED6785B
:103E3000E21C9BA321C9A2218701E10ED6F8C21C76
:103E40009BA321C9A2218701E20FD6B8C22487E62D
:103E50006848B268C86100E30FD6B89228C9A13992
:103E60001A922C1A7218E40ED6F8931C9AA321C940
:103E7000A2218701E50FD6B8C2240CE76848B268D2
:103E8000C86100E60DD6F8A9439824C3940D3A0AF8
:103E9000E70CD6F8A95396A459341601E80DD67844
:103EA000E21C9BB26450E29D00E90DD6F8C21C9B57
:103EB000B26450E29D00EA0DD6B8C22487A62C1940
:103EC000947827EB0DD6F8931C9AB26450E29D00CB
:103ED000EC0AD678E21C531B7702ED0AD6B8C21C56
:103EE000541B7702EE0BD6B8C22487D4C69D00EFD0
:103EF0000AD6F8931C521B7702F00CD6B86D539675
:103F0000644916ED04F111D6B89228C991449292F1
:103F10002CC9922C8701F20DD678E21C9BB2244B5F
:103F2000B26827F30DD6F8C21C9BB2244BB26827A7
:103F3000F40ED6B8C22487A62CC9922CDA09F50F44
:103F4000D6B89228C9A1294BB2248B7602F60DD699
:103F5000F8931C9AB2244BB26827F70AD6F8F11CE2
:103F60001A742867F80DD6F8A94312292D5232E4A5
:103F700004F90FD678E21CCA922CC992C892C300E9
:103F8000FA0FD6F8C21CCA922CC992C892C300FB81
:103F900010D6B8C22447B2244BB224B2E43000FC9D
:103FA0000FD6F8931CC9922CC992C892C300FD0F7A
:103FB000D6F8A130AB64496449932C9A00FE0FD621
:103FC000F8D17488B2244BB26488D214FF10D6F8AA
:103FD000931CC9922C892C6992451300000000049F
:103FE000FFFF000011241FBECFEFD8E0DEBFCDBF22
:103FF00012E0A0E0B1E0E0EFFFE602C005900D9214
:10400000AE32B107D9F727E0AEE2B2E001C01D92AF
:10401000A63FB207E1F70E943C2C0C94F6370C94B3
:1040200000000F931F93DC01ED91FC911197208903
:1040300092960D911C919397629FB0011124660F87
:10404000771F660F771F660F771F060F171F60E039
:104050000E94F2281F910F910895EF92FF920F9303
:104060001F93CF93DF938C01DC019496FC9094977F
:104070009596DC919597ED91FC91E188C0E04D2FEC
:104080006C2FC8010E941120CF5FDF5FCF1510F4A5
:10409000DE15A8F3DF91CF911F910F91FF90EF9064
:1040A0000895FC01A081B18150969C9144A1949FF8
:1040B000A0011124440F551F440F551F440F551FD5
:1040C00060E070E082A193A10E94E1360895CF9351
:1040D000DF93EC010E942D20CE010E944C29DF913C
:1040E000CF91089528E0FC0120838EE292E00895AC
:1040F000CF92DF92EF92FF920F931F93CF93DF93B4
:104100001F92CDB7DEB77C016B0189019A0142E7AE
:1041100058E26AEC79E20E94322ACE0101960E94AE
:10412000722086012DEC35E24981BC01C7010E9455
:1041300010270F90DF91CF911F910F91FF90EF907B
:10414000DF90CF900895860F911DFC018491089512
:10415000FC01E60FF11D849190E03196982F88279D
:10416000E4918E0F911D089580E090E008950F93E3
:104170001F93CF93DF93EC018B0160E0C8010E9495
:10418000A320888361E0C8010E94A320898362E0A4
:10419000C8010E94A3208A8363E0C8010E94A32073
:1041A0008B8364E0C8010E94A3208C8365E0C80172
:1041B0000E94A3208D8366E0C8010E94A3208E8305
:1041C00067E0C8010E94A3208F8368E0C8010E94B5
:1041D000A320888769E0C8010E94A32089876AE03C
:1041E000C8010E94A3208A876BE0C8010E94A32017
:1041F0008B876CE0C8010E94A3208C876DE0C8010A
:104200000E94A3208D876EE0C8010E94A3208E87A4
:104210006FE0C8010E94A3208F8760E1C8010E945F
:10422000A320888B61E1C8010E94A8209A8B898B0A
:1042300063E1C8010E94A8209C8B8B8B65E1C801BB
:104240000E94A8209E8B8D8BDF91CF911F910F91A3
:104250000895DC011A964C911A97ED91FC911197F3
:10426000249130E0042E02C0359527950A94E2F798
:10427000822F942F960F983080F088E0841B31961F
:104280001196FC93EE93E491F0E002C0EE0FFF1F55
:104290008A95E2F78E2F822B985021E030E002C001
:1042A000220F331F6A95E2F721501A969C938223BE
:1042B00008950F931F93CF93DF93EC018C01085B5C
:1042C0001F4FF80171836083128673966081C80165
:1042D0000E942921F801808774966081C8010E949C
:1042E0002921F8018187BC968081F801848791E0BB
:1042F000811190E0C85BDF4F9D87DF91CF911F91C7
:104300000F910895CF93C62F0E942921C15021E01B
:1043100030E002C0220F331FCA95E2F7821BCF9113
:104320000895213049F018F0223059F00FC0840F61
:10433000911D47FD9A950895860F911D67FD9A95E9
:104340000895841B910947FD93950895861B910953
:1043500067FD93950895213049F018F0223059F007
:104360000FC0860F911D67FD9A950895841B9109D2
:1043700047FD93950895861B910967FD93950895D0
:10438000840F911D47FD9A9508956F927F928F92A9
:104390009F92AF92BF92CF92DF92EF92FF920F93D4
:1043A0001F93CF93DF937C01162F742EFC01E85BE3
:1043B000FF4F9680D781F701E85BFF4FC085C91991
:1043C0001C1710F06C2E01C0612EF701E85BFF4F47
:1043D000C480D58006858D2E202F4D2F692D82819A
:1043E00093810E94AB215C01202F4D2F692DC601C6
:1043F0000E949121772071F0F701E85BFF4F24853F
:10440000BC962083262D30E0AC01B501C7010E9487
:10441000F42410C0F701E85BFF4F238521110AC087
:104420002585BC962083262D30E0AC01B501C7015F
:104430000E94F4241C1720F01C1BDF5F912CBBCFC3
:10444000612F690DF701E85BFF4F66838782DF917B
:10445000CF911F910F91FF90EF90DF90CF90BF9081
:10446000AF909F908F907F906F9008956F927F9202
:104470008F929F92AF92BF92CF92DF92EF92FF9274
:104480000F931F93CF93DF93EC017C0188E4E80E38
:10449000F11CCE010E945921FE01EF5AFF4FC0804E
:1044A0003C966081C7010E948221782EFE01E25A6B
:1044B000FF4F6081C7010E948221182FFE01E15A3F
:1044C000FF4F6081C7010E948221D82EF7016084CE
:1044D00016140CF09BC006851C0D1195202F412F42
:1044E000672D828193810E94AB215C01F701938348
:1044F0008283202F412F672D848195810E949121F5
:10450000F70195838483013089F028F0023001F1AE
:104510000330A1F143C09501260D311D67FC3A958A
:104520008C010C0D111DC7FC1A953AC0A5014C1940
:104530005109C7FC539595012F5F3F4F8C01060D24
:10454000111D67FC1A95BA016F5F7F4F5B0128C090
:10455000A5014619510967FC539595012F5F3F4FFF
:10456000BC016C197109C7FC73958C010F5F1F4F5B
:10457000CB010196FA0131965F0112C095012C0D15
:10458000311DC7FC3A95AC014619510967FC53959A
:104590008C010F5F1F4FCA01019602C08C0195016B
:1045A000AC01B501CE010E94A825882379F1FE0156
:1045B000E85BFF4F16821782FE01E75AFF4F6081CA
:1045C000C7010E942921082FFE01E65AFF4F608192
:1045D000C7010E942921182F40E0602FCE010E94C0
:1045E000C52141E0612FCE010E94C52161E0C701D4
:1045F0000E9429218111F0CFFE01E85BFF4F8781E6
:104600008C15D4F28485CC58DF4F88838D2DDF91B3
:10461000CF911F910F91FF90EF90DF90CF90BF90BF
:10462000AF909F908F907F906F900895EF92FF9240
:104630000F931F93CF93DF93FC01EC5BFF4FC0817F
:10464000D18167966F3F710509F038F561367105C4
:1046500030F0B69680819181C80FD91F0AC06134AD
:10466000710538F0FC01E859FF4F80819181C80F36
:10467000D91FCE010196FC012491222309F43CC0EC
:10468000FE01249130E06217730711F4019639C0DE
:10469000FC018491C80FD11DECCF8B01FC01E459C2
:1046A000FF4F80819181C80FD91F7E0160E0C70153
:1046B0000E94A820C80FD91F62E0C7010E94A8204D
:1046C000F4E0EF0EF11C8017910780F3FE01849156
:1046D00090E0982F88273196E4918E2B009779F0FF
:1046E0000817190719F4CE0103960BC0FE01329684
:1046F000E491CE0FD11DEACF80E090E002C080E0CF
:1047000090E0DF91CF911F910F91FF90EF9008956E
:10471000CF93DF93EC01FC01E65BFF4F7183608375
:10472000329651834083B9010E941623009741F0CD
:10473000BC01CE010E943622082E000C990B02C04B
:1047400080E090E0DF91CF910895CF92DF92EF92D9
:10475000FF920F931F93CF93DF93EC018B017A01AC
:104760006901FC01EA5AFF4F8081813089F028F00D
:104770008230C9F0833011F12BC0FE01EA5BFF4F9C
:104780000190F081E02DCE010995E80EF91E20C0C0
:10479000FE01EA5BFF4F0190F081E02DCE0109950B
:1047A000081B190B15C0FE01EA5BFF4F0190F08159
:1047B000E02DCE010995E81AF90A0AC0FE01EA5B6C
:1047C000FF4F0190F081E02DCE010995080F191FD0
:1047D0009601A701B801CE010E948823DF91CF91F5
:1047E0001F910F91FF90EF90DF90CF900895AF92BF
:1047F000BF92CF92DF92EF92FF920F931F93CF93CE
:10480000DF93EC015B016A0189010E944D27E12CD5
:10481000F12CEA81FB81D8016C91CE0109958F3F83
:10482000BFEF9B0739F10F5F1F4F8E3F2FEF9207AE
:1048300081F39C01A601B501CE010E94A5239C0134
:10484000FE01EA5AFF4F9081913049F028F09230F2
:1048500049F0933051F00BC0A20EB31E08C0C20E37
:10486000D31E05C0A21AB30A02C0C21AD30AE20EAE
:10487000F31ECFCFC701DF91CF911F910F91FF9012
:10488000EF90DF90CF90BF90AF900895E0E4F7E213
:10489000DC011396FC93EE9312970E94F723089580
:1048A000FC01EC5BFF4F20813181232BE1F1B096BD
:1048B00020813C9620833B9740813C9640833297F1
:1048C0003081332381F1313079F4399730812317E6
:1048D00014F43A963083FC01E959FF4F20812417E4
:1048E00014F53A9620830895022E000C330BFC0138
:1048F000EF59FF4FE081DC01AD59BF4F5C91652F4F
:10490000052E000C770B6E0F711DE7FD7A952617AB
:1049100037071CF41D96E50FEC93541724F4FC01A3
:10492000EF58FF4F508308958A5B9F4F24EB30E28E
:10493000FC01318320830895CF93DF93FC01EC5B6E
:10494000FF4F208131812617370751F0EC01718329
:104950006083895A9F4F0E94B720CE010E94502445
:10496000DF91CF910895CF93DF93EC01A881B981B6
:10497000EB01E881F981EA0FFB1FEA17FB0738F426
:10498000A217B30718F4F901319701C0DA01A21791
:10499000B307A8F44E175F07A0F4A417B50708F0F3
:1049A000AD012E173F0708F09F01FC0151834083A2
:1049B000241B350BEB013983288381E003C080E0A1
:1049C00001C080E0DF91CF9108950F93DC019A96AA
:1049D000ED91FC919B974E1B5F0B5E96ED91FC91C8
:1049E0005F9709950F910895EF92FF920F931F9390
:1049F000CF93DF9300D000D000D0CDB7DEB77A835D
:104A000069835C834B833E832D83FC01E259FF4F16
:104A10002081222309F474C02D813E8121153105A6
:104A200009F46EC022303105B0F0023041F4621B4F
:104A3000730B9B012F5F3F4F3A8329830CC00330D8
:104A400051F44B815C81DA01A21BB30B9D012F5FF6
:104A50003F4F3C832B837C01102F117000FD1DC044
:104A6000FC0120AD31AD8B819C818217930708F446
:104A700047C022AD33AD8217930708F041C026A985
:104A800037A944A955A9BE016B5F7F4FCE0101969E
:104A90000E94B324811123C033C0DC01D4962D9130
:104AA0003C91D59789819A818217930748F1D696D0
:104AB0002D913C91D7978217930710F5DA962D9197
:104AC0003C91DB97D8964D915C91D997BE016B5F75
:104AD0007F4FCE0103960E94B324882389F0D7012B
:104AE0009096ED91FC9191970480F581E02D2D81B8
:104AF0003E814B815C8169817A81012FC7010995D3
:104B000026960FB6F894DEBF0FBECDBFDF91CF91D2
:104B10001F910F91FF90EF9008954617570740F4AB
:104B20008217930768F02417350760F481E0089531
:104B30008217930748F42417350740F481E008955D
:104B400081E0089580E0089580E0089580E0089570
:104B5000CF92DF92EF92FF920F931F93CF93DF9349
:104B6000EC017B01690198016AAD7BAD88AD99AD1F
:104B70000E948D25882341F06EA97FA99601A70187
:104B80008CA99DA90E948D25DF91CF911F910F9136
:104B9000FF90EF90DF90CF9008950F931F93CF93E6
:104BA000DF93DC01CA01542F5770C1E0D0E0052E1D
:104BB00002C0CC0FDD1F0A94E2F71C2FFD01EC5858
:104BC000FF4FE081E23010F040E001C04C2FE130B7
:104BD00009F410E0887FED91FC911197C089C89F7E
:104BE000F001C99FF00D112492968D919C9193979D
:104BF0006E0F7F1FFC01E60FF71F011108C08081B7
:104C0000842B8127819321503109C9F721C09081DC
:104C1000942B912790835F5F577021503109511178
:104C200010C096968D919C919797E80FF91FED0112
:104C3000CC58DF4F8881823008F441E0813021F484
:104C400004C0440F110F01C011E021153105F9F620
:104C5000DF91CF911F910F910895CF93DF93FC01C6
:104C6000A081B18184A190E09C01220F331F220F0B
:104C7000331F220F331F31A720A750962C91509736
:104C800030E0220F331F220F331F220F331F37A3B1
:104C900026A375A1272F30E0A901440F551F440F0B
:104CA000551F440F551F53A742A7280F391F519670
:104CB0006C915197C62FD0E0C217D30718F4CE01DC
:104CC000871B9109880F991F880F991F880F991FBB
:104CD00055A744A7840F951F97A786A754968D9133
:104CE0009C91559791AB80AB56968D919C9157971F
:104CF00093AB82ABDF91CF9108950E942D2608954A
:104D00000F931F93CF93DF93EC01FC01EE5BFF4FFA
:104D1000008111812EAD3FAD3297408151816CAD44
:104D20007DAD0E94A825811104C0C259DF4F1882B1
:104D30002FC081E0FE01E259FF4F80832CA93DA9DD
:104D40008CAD9DAD2817390710F49DAB8CAB2EA907
:104D50003FA98EAD9FAD8217930710F49FAB8EAB2A
:104D600028AD39ADFE01E05CFF4F808191812817AD
:104D7000390710F499AF88AF2AAD3BADFE01EE5B69
:104D8000FF4F808191818217930710F49BAF8AAF08
:104D9000DF91CF911F910F910895FC0115AA14AADC
:104DA00080A991A997AB86AB84A595A591AF80AF5B
:104DB00086A597A593AF82AFCF010E948026089564
:104DC0000F93FA01DC01D2964D915C91D3974E1B63
:104DD0005F0B00FF03C0421B530B02C0415051093F
:104DE0000E94E5240F910895DC01DD961C921E922D
:104DF000DC97FC01E05CFF4F118210822FEF3FEF48
:104E0000FC0137AF26AFEE5BFF4F318320839096D6
:104E1000ED91FC9191970280F381E02D0995089521
:104E20000F931F93CF93DF93EC01FC01EC5BFF4FDB
:104E3000118210823F8F2E8F7BA36AA34CA31DA2E9
:104E40003F961082B096108234971082359681E09A
:104E500080833196808319A308A3D801ED91FC913A
:104E6000CE010995CE010E94F426CE010E94942421
:104E7000CA5ADF4F1882DF91CF911F910F91089589
:104E8000662329F06A3031F0862F90E008958FEF85
:104E90009FEF08958FEF9FEF0895FC01108E089506
:104EA000462FDC011896ED91FC91199720E030E037
:104EB00060E2099508959A01DC011896ED91FC9144
:104EC0001997462F67E109950895CF93DF931F92B5
:104ED000CDB7DEB76983AE014F5F5F4F61E00E94DF
:104EE0005B270F90DF91CF910895BF92CF92DF9211
:104EF000EF92FF920F931F93CF93DF938C01B42E09
:104F00006901DC01ED91FC9184858170F82E81E0CE
:104F1000E82EEF18683109F447C028F4643171F1C4
:104F2000673141F14FC0693109F445C06032B1F1D8
:104F300049C0F601D1916F01BA94C0E019C0DD23D8
:104F400034F441E061E4C8010E94102A05C040E049
:104F500061E4C8010E94102ADD0F4E2D60E4C801F3
:104F60000E94102A4F2D60E4C8010E94102ACF5FD2
:104F7000C83028F3B110DDCF81E025C0418169E45C
:104F8000C8010E94102AD801ED91FC91448541701E
:104F900060E4C8010E94102A81E015C06AE4C801DB
:104FA0000E94102A81E00FC0408169E4C8010E947C
:104FB000102A81E008C0418169E4C8010E94102ADA
:104FC00081E001C080E0DF91CF911F910F91FF90B0
:104FD000EF90DF90CF90BF900895462FDC0116969A
:104FE000ED91FC91179720E030E065E10995089577
:104FF000462FDC011696ED91FC91179720E030E0EA
:1050000066E1099508959A01DC011696ED91FC91EF
:105010001797462F67E109950895DC011696ED91E3
:10502000FC91179720E030E040E068E10995089591
:10503000DC011696ED91FC91179720E030E040E0FE
:1050400069E109950895EF92FF920F931F93CF9313
:10505000DF931F92CDB7DEB77C018B01D8016D9134
:105060008D016731B9F018F4653130F433C06A311D
:10507000E8F06E3F31F12EC0FD0141918F0149836F
:10508000D7011696ED91FC91179720E030E0C7010B
:105090000995E4CFFD0181918F018983AE014F5FB6
:1050A0005F4F61E0C7010E940328D8CFD701169651
:1050B000ED91FC91179720E030E040E0C7010995A1
:1050C000CDCFFD0141918F01498369E2C7010E9463
:1050D000102AC4CF0F90DF91CF911F910F91FF90B5
:1050E000EF900895EF92FF920F931F93CF93DF936A
:1050F0008C01C62FD42F79016631A1F028F46431D8
:10510000E9F0653131F025C06731A9F06A3108F561
:1051100015C060E00E9450276D2FC8010E946527CE
:1051200081E018C060E00E9450276D2FC8010E94E6
:10513000652781E00FC061E00E945027D8011896D2
:10514000ED91FC91199797014D2F6C2FC80109958E
:1051500001C080E0DF91CF911F910F91FF90EF9000
:105160000895FC0171836083FB012289FC01248B7B
:105170000895CF93DF93EC01EA85FB8520E030E0D2
:1051800040E068E20995EE81FF8120E030E040E0F8
:1051900064E1CE01099541E06BE4CE010E94102A42
:1051A000E881F981448169E2CE010E94102A40E041
:1051B0006BE4CE010E94102AE881F981448169E202
:1051C000CE010E94102A41E06BE4CE010E94102A19
:1051D000E881F981458169E2CE010E94102ADF91C0
:1051E000CF9108950F931F93CF93DF9300D000D0FA
:1051F0001F92CDB7DEB76C834D832B831A8309834F
:10520000DC011496ED91FC9115979E012F5F3F4FA5
:1052100041E06FE009950F900F900F900F900F9065
:10522000DF91CF911F910F910895DC011496ED91BC
:10523000FC91159720E030E040E069E00995089581
:10524000DC011496ED91FC91159720E030E040E0F0
:105250006AE009950895462FDC011496ED91FC91C2
:10526000159720E030E06BE009950895462FDC01AA
:105270001496ED91FC91159720E030E06DE00995D2
:105280000895462FDC011496ED91FC91159720E0CE
:1052900030E06EE009950895DC011496ED91FC91E3
:1052A000159720E030E040E060E109950895DF9235
:1052B000EF92FF920F931F93CF93DF938C01C42F34
:1052C00079016E3009F44CC06F3021F06B3009F079
:1052D00058C038C00E940D28F701D380DD0CDD0CCA
:1052E000DD0CF8018489D80E6D2D62956F706061B8
:1052F000C8010E94ED276D2D6F70C8010E94ED2737
:10530000F7016481606BC8010E94ED27F701D2812B
:10531000DD0FDD0FDD0FE080F1808D2D90E08D0F32
:10532000911D8538910510F0D4E8DD19A7016D2F86
:10533000C8010E940328C150C9F7C8010E9418285B
:1053400081E020C0411106C06BEB71E00E94232870
:1053500081E018C064EB71E00E94232881E012C054
:105360000E940D2861E8C8010E94ED276C2F669508
:105370006695C8010E94F827C8010E94182881E09C
:1053800001C080E0DF91CF911F910F91FF90EF90CE
:10539000DF9008950F931F93CF93DF938C01C62F57
:1053A000D42F0E945729811135C0CA3059F0CD3011
:1053B00099F0C93081F56EE871E0C8010E94B1280A
:1053C00081E029C0C8010E94B9286DE671E0C801DA
:1053D0000E94232881E01FC0D1110EC06DEA71E048
:1053E000C8010E942328D801ED91FC911197828970
:1053F00054968C9381E00FC066EA71E0C8010E9468
:105400002328D801ED91FC911197838954968C93B0
:1054100081E001C081E0DF91CF911F910F9108954C
:10542000DC011A96ED91FC911B9720E030E0099584
:10543000089580E00895FC011182108289E19AE2CA
:1054400095838483978386839187808793878287D8
:10545000158A108E14861586168617868FEF868B12
:10546000828F0895AF92BF92CF92DF92EF92FF9218
:105470000F931F93CF93DF93EC015B016A017901D6
:105480000E941B2ABD82AC82DF82CE82F986E8862A
:105490001B870A87CE010E941529DF91CF911F91AA
:1054A0000F91FF90EF90DF90CF90BF90AF90089555
:1054B0001F920F920FB60F9211248F9381E0809369
:1054C00006018F910F900FBE0F901F9018956134B9
:1054D00041F128F4683259F06034C9F049C06A34A7
:1054E000A1F16B34E1F1693409F042C024C087B105
:1054F000846087B987B1886087B98DB188608DB9BC
:1055000087B1826087B987B1816087B931C0442390
:1055100021F088B1846088B92BC088B18B7F88B9AD
:1055200027C0442321F088B1886088B921C088B1A0
:10553000877F88B91DC0442321F08EB188608EB961
:1055400017C08EB1877F8EB913C0442321F088B174
:10555000826088B90DC088B18D7F88B909C04423A5
:1055600021F088B1816088B903C088B18E7F88B985
:1055700081E00895662399F0DC01ED91FC9111978B
:1055800021E030E0A90112960C9002C0440F551F93
:105590000A94E2F7CA019081892B80830895DC0187
:1055A000ED91FC91119721E030E0A90112960C9049
:1055B00002C0440F551F0A94E2F7CA0180959081FA
:1055C000892380830895FC0130812181613099F025
:1055D00018F06230F1F0089581E090E0028002C09E
:1055E000880F991F0A94E2F7E32FF22F809592918A
:1055F00089238083089581E090E0028002C0880FB3
:10560000991F0A94E2F7E32FF22F9291892B80835E
:10561000089581E090E0AC01028002C0440F551F64
:105620000A94E2F7A32FB22F40952E9142234C9378
:10563000A081B181028002C0880F991F0A94E2F70D
:1056400080959C9189238C930895DC01ED91FC91C8
:10565000119712962C91DF0112978C9190E0022EF7
:1056600002C0959587950A94E2F780FF0CC081E00F
:1056700090E002C0880F991F2A95E2F780959081EB
:1056800089238083089581E090E002C0880F991FEC
:105690002A95E2F79081892B808308951F920F92BB
:1056A0000FB60F9211248F938091D900887F809339
:1056B00007018F910F900FBE0F901F90189580914A
:1056C00008010895109208011092AF061092AE06DC
:1056D0008EE296E008951F920F920FB60F9211245A
:1056E0008F939F93EF93FF93E091AE06F091AF06F7
:1056F0008091C600E25DF94F8083E091AE06F091A3
:10570000AF06E25DF94F80818A3051F481E08093E9
:105710000801E091AE06F091AF06E15DF94F10820D
:105720008091AE069091AF0601969093AF0680935C
:10573000AE06FF91EF919F918F910F900FBE0F904A
:105740001F9018951F920F920FB60F9211248F93EE
:1057500081E0809309018F910F900FBE0F901F90F1
:105760001895442339F0E0ECF0E02081226020839A
:10577000A8E001C0A0E1B0E09B01AC010E9462334F
:105780009B01AC0160E074E284EF90E00E94313351
:10579000BA01A9014150510961097109DB01CA012E
:1057A00088279F70AA27BB27892F9A2FAB2FBB274B
:1057B0008093C5004093C400E1ECF0E08081886DE7
:1057C000808386E88093C20008959091090199230F
:1057D000E1F3109209018093C60008958F929F9281
:1057E000AF92BF92CF92DF92FF920F931F93CF930E
:1057F000DF9300D0CDB7DEB7F62E0E94C7366C011E
:10580000AE014F5F5F4F62EC71E00E94FA3600E03C
:1058100010E01DC02F2D30E00217130769F440E19E
:1058200050E060E070E00E94C5344B015C01C601AD
:105830000E943C34C40112C0AE014F5F5F4F62EC66
:1058400071E080E090E00E94FA360F5F1F4F0097F2
:1058500009F7C6010E943C3480E090E00F900F9061
:10586000DF91CF911F910F91FF90DF90CF90BF906C
:10587000AF909F908F900895CF93DF93CDB7DEB711
:10588000C054D1090FB6F894DEBF0FBECDBF7894D7
:1058900080E191E09093F1078093F0078CE0E7E2DC
:1058A000F1E0DE01119601900D928A95E1F7FE017B
:1058B0003D9684E3DF011D928A95E9F727E63AE2F7
:1058C00045E757E267E671E084E397E00E947820BD
:1058D00040E060E875E280E090E00E94B12B84E354
:1058E00097E00E94202960E084E397E00E942B2942
:1058F00061E084E397E00E94362968E784E397E05B
:105900000E94412961E084E291E00E94E32A61E083
:1059100084E291E00E94BA2A61E081E291E00E9473
:10592000E32A61E081E291E00E94BA2A61E08EE11F
:1059300091E00E94E32A60E08EE191E00E94BA2AA1
:1059400084E397E00E9451206BE876E384E397E0DC
:105950000E949C2424EC31E04AE050E061E070E0D9
:1059600084E397E00E94462480910F018F938091F9
:105970000E018F938EEC91E09F938F930AEA17E0CC
:105980001F930F930E947337980144E150E061E048
:1059900070E084E397E00E94462480910D018F938C
:1059A00080910C018F9388ED91E09F938F931F93CB
:1059B0000F930E94733798014EE150E061E070E070
:1059C00084E397E00E94462480910B018F9380919D
:1059D0000A018F9384EE91E09F938F931F930F930F
:1059E0000E947337980148E250E061E070E084E380
:1059F00097E00E94462484E397E00E94672060E0DD
:105A000081E291E00E94BA2ABFEF29E688E1B15015
:105A100020408040E1F700C0000080910F018F938B
:105A200080910E018F938DEE91E09F938F930E9452
:105A30005D379FEFA9E6B8E19150A040B040E1F793
:105A400000C0000080910D018F9380910C018F9315
:105A50008BEF91E09F938F930E945D372FEF89E644
:105A600098E1215080409040E1F700C00000809113
:105A70000B018F9380910A018F9389E092E09F93AD
:105A80008F930E945D37AFEFB9E628E1A150B04097
:105A90002040E1F700C0000061E081E291E00E9457
:105AA000BA2A8FEF99E6A8E181509040A040E1F733
:105AB00000C0000084E397E00E94512084E397E057
:105AC0000E9467200FB6F894DEBF0FBECDBF00E086
:105AD00010E0C12CD12CE12CF12C55245394812CB5
